{
  "contractName": "ElectionBuilder",
  "abi": [
    {
      "constant": true,
      "inputs": [],
      "name": "electionCount",
      "outputs": [
        {
          "internalType": "uint256",
          "name": "",
          "type": "uint256"
        }
      ],
      "payable": false,
      "stateMutability": "view",
      "type": "function"
    },
    {
      "constant": true,
      "inputs": [
        {
          "internalType": "address",
          "name": "",
          "type": "address"
        },
        {
          "internalType": "uint256",
          "name": "",
          "type": "uint256"
        }
      ],
      "name": "electionCreators",
      "outputs": [
        {
          "internalType": "address",
          "name": "",
          "type": "address"
        }
      ],
      "payable": false,
      "stateMutability": "view",
      "type": "function"
    },
    {
      "constant": true,
      "inputs": [
        {
          "internalType": "address",
          "name": "",
          "type": "address"
        }
      ],
      "name": "electionDeadlines",
      "outputs": [
        {
          "internalType": "string",
          "name": "",
          "type": "string"
        }
      ],
      "payable": false,
      "stateMutability": "view",
      "type": "function"
    },
    {
      "constant": true,
      "inputs": [
        {
          "internalType": "address",
          "name": "",
          "type": "address"
        }
      ],
      "name": "electionNames",
      "outputs": [
        {
          "internalType": "string",
          "name": "",
          "type": "string"
        }
      ],
      "payable": false,
      "stateMutability": "view",
      "type": "function"
    },
    {
      "constant": true,
      "inputs": [
        {
          "internalType": "address",
          "name": "",
          "type": "address"
        }
      ],
      "name": "electionTypes",
      "outputs": [
        {
          "internalType": "string",
          "name": "",
          "type": "string"
        }
      ],
      "payable": false,
      "stateMutability": "view",
      "type": "function"
    },
    {
      "constant": true,
      "inputs": [
        {
          "internalType": "uint256",
          "name": "",
          "type": "uint256"
        }
      ],
      "name": "elections",
      "outputs": [
        {
          "internalType": "contract Election",
          "name": "",
          "type": "address"
        }
      ],
      "payable": false,
      "stateMutability": "view",
      "type": "function"
    },
    {
      "constant": true,
      "inputs": [
        {
          "internalType": "uint256",
          "name": "",
          "type": "uint256"
        }
      ],
      "name": "usedNames",
      "outputs": [
        {
          "internalType": "string",
          "name": "",
          "type": "string"
        }
      ],
      "payable": false,
      "stateMutability": "view",
      "type": "function"
    },
    {
      "constant": true,
      "inputs": [
        {
          "internalType": "address",
          "name": "",
          "type": "address"
        }
      ],
      "name": "userBallotCount",
      "outputs": [
        {
          "internalType": "uint256",
          "name": "",
          "type": "uint256"
        }
      ],
      "payable": false,
      "stateMutability": "view",
      "type": "function"
    },
    {
      "constant": true,
      "inputs": [
        {
          "internalType": "address",
          "name": "",
          "type": "address"
        },
        {
          "internalType": "uint256",
          "name": "",
          "type": "uint256"
        }
      ],
      "name": "userBallots",
      "outputs": [
        {
          "internalType": "string",
          "name": "name",
          "type": "string"
        },
        {
          "internalType": "address",
          "name": "electionAddress",
          "type": "address"
        },
        {
          "internalType": "string",
          "name": "ballot",
          "type": "string"
        }
      ],
      "payable": false,
      "stateMutability": "view",
      "type": "function"
    },
    {
      "constant": true,
      "inputs": [
        {
          "internalType": "address",
          "name": "",
          "type": "address"
        }
      ],
      "name": "userElectionCount",
      "outputs": [
        {
          "internalType": "uint256",
          "name": "",
          "type": "uint256"
        }
      ],
      "payable": false,
      "stateMutability": "view",
      "type": "function"
    },
    {
      "constant": true,
      "inputs": [
        {
          "internalType": "address",
          "name": "_address",
          "type": "address"
        }
      ],
      "name": "getElectionData",
      "outputs": [
        {
          "components": [
            {
              "internalType": "string",
              "name": "name",
              "type": "string"
            },
            {
              "internalType": "string",
              "name": "deadline",
              "type": "string"
            },
            {
              "internalType": "string",
              "name": "electionType",
              "type": "string"
            }
          ],
          "internalType": "struct ElectionBuilder.ElectionData",
          "name": "",
          "type": "tuple"
        }
      ],
      "payable": false,
      "stateMutability": "view",
      "type": "function"
    },
    {
      "constant": true,
      "inputs": [
        {
          "internalType": "address",
          "name": "_address",
          "type": "address"
        }
      ],
      "name": "getUserBallots",
      "outputs": [
        {
          "components": [
            {
              "internalType": "string",
              "name": "name",
              "type": "string"
            },
            {
              "internalType": "address",
              "name": "electionAddress",
              "type": "address"
            },
            {
              "internalType": "string",
              "name": "ballot",
              "type": "string"
            }
          ],
          "internalType": "struct ElectionBuilder.BallotData[]",
          "name": "",
          "type": "tuple[]"
        }
      ],
      "payable": false,
      "stateMutability": "view",
      "type": "function"
    },
    {
      "constant": false,
      "inputs": [
        {
          "internalType": "string",
          "name": "_electionName",
          "type": "string"
        },
        {
          "internalType": "address",
          "name": "_address",
          "type": "address"
        },
        {
          "internalType": "string",
          "name": "_ballot",
          "type": "string"
        }
      ],
      "name": "addUserBallot",
      "outputs": [],
      "payable": false,
      "stateMutability": "nonpayable",
      "type": "function"
    },
    {
      "constant": true,
      "inputs": [
        {
          "internalType": "string",
          "name": "electionName",
          "type": "string"
        }
      ],
      "name": "checkDuplicateNames",
      "outputs": [
        {
          "internalType": "bool",
          "name": "",
          "type": "bool"
        }
      ],
      "payable": false,
      "stateMutability": "view",
      "type": "function"
    },
    {
      "constant": false,
      "inputs": [
        {
          "internalType": "string",
          "name": "electionName",
          "type": "string"
        },
        {
          "internalType": "string[]",
          "name": "partyNames",
          "type": "string[]"
        },
        {
          "internalType": "uint256",
          "name": "time",
          "type": "uint256"
        },
        {
          "internalType": "string",
          "name": "timeStr",
          "type": "string"
        },
        {
          "internalType": "string",
          "name": "electionType",
          "type": "string"
        },
        {
          "internalType": "uint256",
          "name": "stvSeatCount",
          "type": "uint256"
        },
        {
          "internalType": "string",
          "name": "electionKey",
          "type": "string"
        },
        {
          "internalType": "bytes32[]",
          "name": "hashedVoterIds",
          "type": "bytes32[]"
        },
        {
          "internalType": "uint256",
          "name": "validVoterCount",
          "type": "uint256"
        }
      ],
      "name": "deployElection",
      "outputs": [],
      "payable": false,
      "stateMutability": "nonpayable",
      "type": "function"
    }
  ],
  "bytecode": "0x6080604052600060015534801561001557600080fd5b50614737806100256000396000f3fe60806040523480156200001157600080fd5b50600436106200010c5760003560e01c80636fce13c011620000a5578063a0534e9e116200006f578063a0534e9e1462000339578063c0716835146200036f578063cdd4a2d8146200038f578063e7901a7d14620003c7576200010c565b80636fce13c0146200028b57806372613aa414620002ab5780637829129014620002e1578063997d28301462000317576200010c565b806356da240811620000e757806356da240814620001b35780635e0521fb14620001e95780635e6fef01146200021f57806368263a331462000255576200010c565b8063170e5ccf14620001115780631afd49e3146200014757806334965963146200017d575b600080fd5b6200012f6004803603620001299190810190620017e4565b620003fd565b6040516200013e91906200211c565b60405180910390f35b6200016560048036036200015f9190810190620017e4565b620006ba565b60405162000174919062001fd3565b60405180910390f35b6200019b6004803603620001959190810190620017e4565b6200076e565b604051620001aa919062002140565b60405180910390f35b620001d16004803603620001cb919081019062001a8d565b62000786565b604051620001e0919062001fd3565b60405180910390f35b620002076004803603620002019190810190620017e4565b62000844565b60405162000216919062001f75565b60405180910390f35b6200023d600480360362000237919081019062001a8d565b62000b13565b6040516200024c919062001fb6565b60405180910390f35b6200027360048036036200026d9190810190620017e4565b62000b50565b60405162000282919062001fd3565b60405180910390f35b620002a96004803603620002a3919081019062001896565b62000c04565b005b620002c96004803603620002c39190810190620017e4565b62000d88565b604051620002d8919062002140565b60405180910390f35b620002ff6004803603620002f9919081019062001810565b62000da0565b6040516200030e919062001f58565b60405180910390f35b6200032162000dec565b60405162000330919062002140565b60405180910390f35b620003576004803603620003519190810190620017e4565b62000df2565b60405162000366919062001fd3565b60405180910390f35b6200038d60048036036200038791908101906200191e565b62000ea6565b005b620003ad6004803603620003a7919081019062001810565b620011c6565b604051620003be93929190620020d1565b60405180910390f35b620003e56004803603620003df919081019062001851565b62001363565b604051620003f4919062001f99565b60405180910390f35b620004076200140a565b6040518060600160405280600360008573ffffffffffffffffffffffffffffffffffffffff1673ffffffffffffffffffffffffffffffffffffffff1681526020019081526020016000208054600181600116156101000203166002900480601f016020809104026020016040519081016040528092919081815260200182805460018160011615610100020316600290048015620004e95780601f10620004bd57610100808354040283529160200191620004e9565b820191906000526020600020905b815481529060010190602001808311620004cb57829003601f168201915b50505050508152602001600460008573ffffffffffffffffffffffffffffffffffffffff1673ffffffffffffffffffffffffffffffffffffffff1681526020019081526020016000208054600181600116156101000203166002900480601f016020809104026020016040519081016040528092919081815260200182805460018160011615610100020316600290048015620005ca5780601f106200059e57610100808354040283529160200191620005ca565b820191906000526020600020905b815481529060010190602001808311620005ac57829003601f168201915b50505050508152602001600560008573ffffffffffffffffffffffffffffffffffffffff1673ffffffffffffffffffffffffffffffffffffffff1681526020019081526020016000208054600181600116156101000203166002900480601f016020809104026020016040519081016040528092919081815260200182805460018160011615610100020316600290048015620006ab5780601f106200067f57610100808354040283529160200191620006ab565b820191906000526020600020905b8154815290600101906020018083116200068d57829003601f168201915b50505050508152509050919050565b60056020528060005260406000206000915090508054600181600116156101000203166002900480601f016020809104026020016040519081016040528092919081815260200182805460018160011615610100020316600290048015620007665780601f106200073a5761010080835404028352916020019162000766565b820191906000526020600020905b8154815290600101906020018083116200074857829003601f168201915b505050505081565b60066020528060005260406000206000915090505481565b600281815481106200079457fe5b906000526020600020016000915090508054600181600116156101000203166002900480601f0160208091040260200160405190810160405280929190818152602001828054600181600116156101000203166002900480156200083c5780601f1062000810576101008083540402835291602001916200083c565b820191906000526020600020905b8154815290600101906020018083116200081e57829003601f168201915b505050505081565b60606000600860008473ffffffffffffffffffffffffffffffffffffffff1673ffffffffffffffffffffffffffffffffffffffff168152602001908152602001600020549050606081604051908082528060200260200182016040528015620008ca57816020015b620008b66200142b565b815260200190600190039081620008ac5790505b50905060008090505b8281101562000b0857600960008673ffffffffffffffffffffffffffffffffffffffff1673ffffffffffffffffffffffffffffffffffffffff16815260200190815260200160002081815481106200092757fe5b9060005260206000209060030201604051806060016040529081600082018054600181600116156101000203166002900480601f016020809104026020016040519081016040528092919081815260200182805460018160011615610100020316600290048015620009dd5780601f10620009b157610100808354040283529160200191620009dd565b820191906000526020600020905b815481529060010190602001808311620009bf57829003601f168201915b505050505081526020016001820160009054906101000a900473ffffffffffffffffffffffffffffffffffffffff1673ffffffffffffffffffffffffffffffffffffffff1673ffffffffffffffffffffffffffffffffffffffff168152602001600282018054600181600116156101000203166002900480601f01602080910402602001604051908101604052809291908181526020018280546001816001161561010002031660029004801562000ad95780601f1062000aad5761010080835404028352916020019162000ad9565b820191906000526020600020905b81548152906001019060200180831162000abb57829003601f168201915b50505050508152505082828151811062000aef57fe5b60200260200101819052508080600101915050620008d3565b508092505050919050565b6000818154811062000b2157fe5b906000526020600020016000915054906101000a900473ffffffffffffffffffffffffffffffffffffffff1681565b60036020528060005260406000206000915090508054600181600116156101000203166002900480601f01602080910402602001604051908101604052809291908181526020018280546001816001161561010002031660029004801562000bfc5780601f1062000bd05761010080835404028352916020019162000bfc565b820191906000526020600020905b81548152906001019060200180831162000bde57829003601f168201915b505050505081565b62000c0e62001462565b60405180606001604052808581526020018473ffffffffffffffffffffffffffffffffffffffff168152602001838152509050600960008473ffffffffffffffffffffffffffffffffffffffff1673ffffffffffffffffffffffffffffffffffffffff1681526020019081526020016000208190806001815401808255809150509060018203906000526020600020906003020160009091929091909150600082015181600001908051906020019062000cca92919062001499565b5060208201518160010160006101000a81548173ffffffffffffffffffffffffffffffffffffffff021916908373ffffffffffffffffffffffffffffffffffffffff160217905550604082015181600201908051906020019062000d3092919062001499565b505050506001600860008573ffffffffffffffffffffffffffffffffffffffff1673ffffffffffffffffffffffffffffffffffffffff1681526020019081526020016000206000828254019250508190555050505050565b60086020528060005260406000206000915090505481565b6007602052816000526040600020818154811062000dba57fe5b906000526020600020016000915091509054906101000a900473ffffffffffffffffffffffffffffffffffffffff1681565b60015481565b60046020528060005260406000206000915090508054600181600116156101000203166002900480601f01602080910402602001604051908101604052809291908181526020018280546001816001161561010002031660029004801562000e9e5780601f1062000e725761010080835404028352916020019162000e9e565b820191906000526020600020905b81548152906001019060200180831162000e8057829003601f168201915b505050505081565b6001151562000eb58a62001363565b15151415620011bb5760008989898989898989893060405162000ed89062001520565b62000eed9a9998979695949392919062001ff7565b604051809103906000f08015801562000f0a573d6000803e3d6000fd5b50905060008190806001815401808255809150509060018203906000526020600020016000909192909190916101000a81548173ffffffffffffffffffffffffffffffffffffffff021916908373ffffffffffffffffffffffffffffffffffffffff1602179055505060028a908060018154018082558091505090600182039060005260206000200160009091929091909150908051906020019062000fb29291906200152e565b505089600360008373ffffffffffffffffffffffffffffffffffffffff1673ffffffffffffffffffffffffffffffffffffffff1681526020019081526020016000209080519060200190620010099291906200152e565b5086600460008373ffffffffffffffffffffffffffffffffffffffff1673ffffffffffffffffffffffffffffffffffffffff16815260200190815260200160002090805190602001906200105f9291906200152e565b5085600560008373ffffffffffffffffffffffffffffffffffffffff1673ffffffffffffffffffffffffffffffffffffffff1681526020019081526020016000209080519060200190620010b59291906200152e565b50600760003373ffffffffffffffffffffffffffffffffffffffff1673ffffffffffffffffffffffffffffffffffffffff1681526020019081526020016000208190806001815401808255809150509060018203906000526020600020016000909192909190916101000a81548173ffffffffffffffffffffffffffffffffffffffff021916908373ffffffffffffffffffffffffffffffffffffffff160217905550506001600660003373ffffffffffffffffffffffffffffffffffffffff1673ffffffffffffffffffffffffffffffffffffffff16815260200190815260200160002060008282540192505081905550600160008154809291906001019190505550505b505050505050505050565b60096020528160005260406000208181548110620011e057fe5b906000526020600020906003020160009150915050806000018054600181600116156101000203166002900480601f016020809104026020016040519081016040528092919081815260200182805460018160011615610100020316600290048015620012915780601f10620012655761010080835404028352916020019162001291565b820191906000526020600020905b8154815290600101906020018083116200127357829003601f168201915b5050505050908060010160009054906101000a900473ffffffffffffffffffffffffffffffffffffffff1690806002018054600181600116156101000203166002900480601f016020809104026020016040519081016040528092919081815260200182805460018160011615610100020316600290048015620013595780601f106200132d5761010080835404028352916020019162001359565b820191906000526020600020905b8154815290600101906020018083116200133b57829003601f168201915b5050505050905083565b600080600090505b600154811015620013ff57600281815481106200138457fe5b90600052602060002001604051602001620013a0919062001f3f565b6040516020818303038152906040528051906020012083604051602001620013c9919062001f26565b604051602081830303815290604052805190602001201415620013f157600091505062001405565b80806001019150506200136b565b50600190505b919050565b60405180606001604052806060815260200160608152602001606081525090565b604051806060016040528060608152602001600073ffffffffffffffffffffffffffffffffffffffff168152602001606081525090565b604051806060016040528060608152602001600073ffffffffffffffffffffffffffffffffffffffff168152602001606081525090565b828054600181600116156101000203166002900490600052602060002090601f016020900481019282601f10620014dc57805160ff19168380011785556200150d565b828001600101855582156200150d579182015b828111156200150c578251825591602001919060010190620014ef565b5b5090506200151c9190620015b5565b5090565b61229a806200245b83390190565b828054600181600116156101000203166002900490600052602060002090601f016020900481019282601f106200157157805160ff1916838001178555620015a2565b82800160010185558215620015a2579182015b82811115620015a157825182559160200191906001019062001584565b5b509050620015b19190620015b5565b5090565b620015da91905b80821115620015d6576000816000905550600101620015bc565b5090565b90565b600081359050620015ee816200240c565b92915050565b600082601f8301126200160657600080fd5b81356200161d62001617826200218b565b6200215d565b915081818352602084019350602081019050838560208402820111156200164357600080fd5b60005b838110156200167757816200165c8882620016fe565b84526020840193506020830192505060018101905062001646565b5050505092915050565b600082601f8301126200169357600080fd5b8135620016aa620016a482620021b4565b6200215d565b9150818183526020840193506020810190508360005b83811015620016f45781358601620016d9888262001715565b845260208401935060208301925050600181019050620016c0565b5050505092915050565b6000813590506200170f8162002426565b92915050565b600082601f8301126200172757600080fd5b81356200173e6200173882620021dd565b6200215d565b915080825260208301602083018583830111156200175b57600080fd5b62001768838284620023b6565b50505092915050565b600082601f8301126200178357600080fd5b81356200179a62001794826200220a565b6200215d565b91508082526020830160208301858383011115620017b757600080fd5b620017c4838284620023b6565b50505092915050565b600081359050620017de8162002440565b92915050565b600060208284031215620017f757600080fd5b60006200180784828501620015dd565b91505092915050565b600080604083850312156200182457600080fd5b60006200183485828601620015dd565b92505060206200184785828601620017cd565b9150509250929050565b6000602082840312156200186457600080fd5b600082013567ffffffffffffffff8111156200187f57600080fd5b6200188d8482850162001771565b91505092915050565b600080600060608486031215620018ac57600080fd5b600084013567ffffffffffffffff811115620018c757600080fd5b620018d58682870162001771565b9350506020620018e886828701620015dd565b925050604084013567ffffffffffffffff8111156200190657600080fd5b620019148682870162001771565b9150509250925092565b60008060008060008060008060006101208a8c0312156200193e57600080fd5b60008a013567ffffffffffffffff8111156200195957600080fd5b620019678c828d0162001771565b99505060208a013567ffffffffffffffff8111156200198557600080fd5b620019938c828d0162001681565b9850506040620019a68c828d01620017cd565b97505060608a013567ffffffffffffffff811115620019c457600080fd5b620019d28c828d0162001771565b96505060808a013567ffffffffffffffff811115620019f057600080fd5b620019fe8c828d0162001771565b95505060a062001a118c828d01620017cd565b94505060c08a013567ffffffffffffffff81111562001a2f57600080fd5b62001a3d8c828d0162001771565b93505060e08a013567ffffffffffffffff81111562001a5b57600080fd5b62001a698c828d01620015f4565b92505061010062001a7d8c828d01620017cd565b9150509295985092959850929598565b60006020828403121562001aa057600080fd5b600062001ab084828501620017cd565b91505092915050565b600062001ac7838362001c9e565b60208301905092915050565b600062001ae1838362001d38565b905092915050565b600062001af7838362001e54565b905092915050565b62001b0a816200233a565b82525050565b62001b1b816200233a565b82525050565b600062001b2e826200227c565b62001b3a8185620022da565b935062001b478362002237565b8060005b8381101562001b7e57815162001b62888262001ab9565b975062001b6f83620022b3565b92505060018101905062001b4b565b5085935050505092915050565b600062001b988262002287565b62001ba48185620022eb565b93508360208202850162001bb88562002247565b8060005b8581101562001bfa578484038952815162001bd8858262001ad3565b945062001be583620022c0565b925060208a0199505060018101905062001bbc565b50829750879550505050505092915050565b600062001c198262002292565b62001c258185620022fc565b93508360208202850162001c398562002257565b8060005b8581101562001c7b578484038952815162001c59858262001ae9565b945062001c6683620022cd565b925060208a0199505060018101905062001c3d565b50829750879550505050505092915050565b62001c98816200234e565b82525050565b62001ca9816200235a565b82525050565b62001cba816200238e565b82525050565b600062001ccd82620022a8565b62001cd981856200231e565b935062001ceb818560208601620023c5565b62001cf681620023fb565b840191505092915050565b600062001d0e82620022a8565b62001d1a81856200232f565b935062001d2c818560208601620023c5565b80840191505092915050565b600062001d45826200229d565b62001d5181856200230d565b935062001d63818560208601620023c5565b62001d6e81620023fb565b840191505092915050565b600062001d86826200229d565b62001d9281856200231e565b935062001da4818560208601620023c5565b62001daf81620023fb565b840191505092915050565b60008154600181166000811462001dda576001811462001e025762001e4c565b607f600283041662001ded81876200232f565b955060ff198316865280860193505062001e4c565b6002820462001e1281876200232f565b955062001e1f8562002267565b60005b8281101562001e435781548189015260018201915060208101905062001e22565b82880195505050505b505092915050565b6000606083016000830151848203600086015262001e73828262001d38565b915050602083015162001e8a602086018262001aff565b506040830151848203604086015262001ea4828262001d38565b9150508091505092915050565b6000606083016000830151848203600086015262001ed0828262001d38565b9150506020830151848203602086015262001eec828262001d38565b9150506040830151848203604086015262001f08828262001d38565b9150508091505092915050565b62001f208162002384565b82525050565b600062001f34828462001d01565b915081905092915050565b600062001f4d828462001dba565b915081905092915050565b600060208201905062001f6f600083018462001b10565b92915050565b6000602082019050818103600083015262001f91818462001c0c565b905092915050565b600060208201905062001fb0600083018462001c8d565b92915050565b600060208201905062001fcd600083018462001caf565b92915050565b6000602082019050818103600083015262001fef818462001d79565b905092915050565b600061014082019050818103600083015262002014818d62001cc0565b905081810360208301526200202a818c62001b8b565b90506200203b604083018b62001f15565b81810360608301526200204f818a62001cc0565b9050818103608083015262002065818962001cc0565b90506200207660a083018862001f15565b81810360c08301526200208a818762001cc0565b905081810360e0830152620020a0818662001b21565b9050620020b261010083018562001f15565b620020c261012083018462001b10565b9b9a5050505050505050505050565b60006060820190508181036000830152620020ed818662001d79565b9050620020fe602083018562001b10565b818103604083015262002112818462001d79565b9050949350505050565b6000602082019050818103600083015262002138818462001eb1565b905092915050565b600060208201905062002157600083018462001f15565b92915050565b6000604051905081810181811067ffffffffffffffff821117156200218157600080fd5b8060405250919050565b600067ffffffffffffffff821115620021a357600080fd5b602082029050602081019050919050565b600067ffffffffffffffff821115620021cc57600080fd5b602082029050602081019050919050565b600067ffffffffffffffff821115620021f557600080fd5b601f19601f8301169050602081019050919050565b600067ffffffffffffffff8211156200222257600080fd5b601f19601f8301169050602081019050919050565b6000819050602082019050919050565b6000819050602082019050919050565b6000819050602082019050919050565b60008190508160005260206000209050919050565b600081519050919050565b600081519050919050565b600081519050919050565b600081519050919050565b600081519050919050565b6000602082019050919050565b6000602082019050919050565b6000602082019050919050565b600082825260208201905092915050565b600082825260208201905092915050565b600082825260208201905092915050565b600082825260208201905092915050565b600082825260208201905092915050565b600081905092915050565b6000620023478262002364565b9050919050565b60008115159050919050565b6000819050919050565b600073ffffffffffffffffffffffffffffffffffffffff82169050919050565b6000819050919050565b60006200239b82620023a2565b9050919050565b6000620023af8262002364565b9050919050565b82818337600083830152505050565b60005b83811015620023e5578082015181840152602081019050620023c8565b83811115620023f5576000848401525b50505050565b6000601f19601f8301169050919050565b62002417816200233a565b81146200242357600080fd5b50565b62002431816200235a565b81146200243d57600080fd5b50565b6200244b8162002384565b81146200245757600080fd5b5056fe60806040526000600855600060095542600a55601e600b556000600f556040518060400160405280600581526020017f6e6f4b6579000000000000000000000000000000000000000000000000000000815250601190805190602001906200006992919062000290565b503480156200007757600080fd5b506040516200229a3803806200229a83398181016040526200009d919081019062000647565b8960039080519060200190620000b592919062000290565b5087600b819055508660049080519060200190620000d592919062000290565b508560059080519060200190620000ee92919062000290565b5083601090805190602001906200010792919062000290565b5082601290805190602001906200012092919062000317565b50816013819055508460148190555080601560006101000a81548173ffffffffffffffffffffffffffffffffffffffff021916908373ffffffffffffffffffffffffffffffffffffffff1602179055506040518060400160405280600a81526020017f696e50726f67726573730000000000000000000000000000000000000000000081525060069080519060200190620001bd92919062000290565b5060008090505b89518110156200020157620001f38a8281518110620001df57fe5b60200260200101516200021260201b60201c565b8080600101915050620001c4565b505050505050505050505062000973565b60405180606001604052808281526020016008548152602001600081525060016000600854815260200190815260200160002060008201518160000190805190602001906200026392919062000369565b50602082015181600101556040820151816002015590505060086000815480929190600101919050555050565b828054600181600116156101000203166002900490600052602060002090601f016020900481019282601f10620002d357805160ff191683800117855562000304565b8280016001018555821562000304579182015b8281111562000303578251825591602001919060010190620002e6565b5b509050620003139190620003f0565b5090565b82805482825590600052602060002090810192821562000356579160200282015b828111156200035557825182559160200191906001019062000338565b5b50905062000365919062000418565b5090565b828054600181600116156101000203166002900490600052602060002090601f016020900481019282601f10620003ac57805160ff1916838001178555620003dd565b82800160010185558215620003dd579182015b82811115620003dc578251825591602001919060010190620003bf565b5b509050620003ec9190620003f0565b5090565b6200041591905b8082111562000411576000816000905550600101620003f7565b5090565b90565b6200043d91905b80821115620004395760008160009055506001016200041f565b5090565b90565b600081519050620004518162000925565b92915050565b600082601f8301126200046957600080fd5b8151620004806200047a82620007fb565b620007cd565b91508181835260208401935060208101905083856020840282011115620004a657600080fd5b60005b83811015620004da5781620004bf888262000561565b845260208401935060208301925050600181019050620004a9565b5050505092915050565b600082601f830112620004f657600080fd5b81516200050d620005078262000824565b620007cd565b9150818183526020840193506020810190508360005b838110156200055757815186016200053c888262000578565b84526020840193506020830192505060018101905062000523565b5050505092915050565b60008151905062000572816200093f565b92915050565b600082601f8301126200058a57600080fd5b8151620005a16200059b826200084d565b620007cd565b91508082526020830160208301858383011115620005be57600080fd5b620005cb838284620008ef565b50505092915050565b600082601f830112620005e657600080fd5b8151620005fd620005f7826200087a565b620007cd565b915080825260208301602083018583830111156200061a57600080fd5b62000627838284620008ef565b50505092915050565b600081519050620006418162000959565b92915050565b6000806000806000806000806000806101408b8d0312156200066857600080fd5b60008b015167ffffffffffffffff8111156200068357600080fd5b620006918d828e01620005d4565b9a505060208b015167ffffffffffffffff811115620006af57600080fd5b620006bd8d828e01620004e4565b9950506040620006d08d828e0162000630565b98505060608b015167ffffffffffffffff811115620006ee57600080fd5b620006fc8d828e01620005d4565b97505060808b015167ffffffffffffffff8111156200071a57600080fd5b620007288d828e01620005d4565b96505060a06200073b8d828e0162000630565b95505060c08b015167ffffffffffffffff8111156200075957600080fd5b620007678d828e01620005d4565b94505060e08b015167ffffffffffffffff8111156200078557600080fd5b620007938d828e0162000457565b935050610100620007a78d828e0162000630565b925050610120620007bb8d828e0162000440565b9150509295989b9194979a5092959850565b6000604051905081810181811067ffffffffffffffff82111715620007f157600080fd5b8060405250919050565b600067ffffffffffffffff8211156200081357600080fd5b602082029050602081019050919050565b600067ffffffffffffffff8211156200083c57600080fd5b602082029050602081019050919050565b600067ffffffffffffffff8211156200086557600080fd5b601f19601f8301169050602081019050919050565b600067ffffffffffffffff8211156200089257600080fd5b601f19601f8301169050602081019050919050565b6000620008b482620008c5565b9050919050565b6000819050919050565b600073ffffffffffffffffffffffffffffffffffffffff82169050919050565b6000819050919050565b60005b838110156200090f578082015181840152602081019050620008f2565b838111156200091f576000848401525b50505050565b6200093081620008a7565b81146200093c57600080fd5b50565b6200094a81620008bb565b81146200095657600080fd5b50565b6200096481620008e5565b81146200097057600080fd5b50565b61191780620009836000396000f3fe608060405234801561001057600080fd5b50600436106101425760003560e01c80638e05bd08116100b8578063c00300321161007c578063c003003214610381578063d3d8b9a21461039f578063eaef0349146103bd578063eb87c6dc146103db578063f8bf89b5146103f9578063fa3d85461461042957610142565b80638e05bd08146102d95780639a53c45a146102f55780639eb8e72514610313578063a3ec138d14610331578063ae315fe41461036157610142565b80634885c72a1161010a5780634885c72a146101ed5780635c632b381461020b57806370651a181461023b5780638245d99e1461026d57806385e8e7a71461029d5780638c4f3820146102bb57610142565b8063202ed64314610147578063242b2826146101635780632f22850d1461019357806338cc4831146101b15780633a84e39d146101cf575b600080fd5b610161600480360361015c91908101906111fb565b610447565b005b61017d60048036036101789190810190611179565b610673565b60405161018a9190611532565b60405180910390f35b61019b61071b565b6040516101a89190611628565b60405180910390f35b6101b9610721565b6040516101c691906114f5565b60405180910390f35b6101d7610729565b6040516101e49190611568565b60405180910390f35b6101f561074f565b6040516102029190611583565b60405180910390f35b61022560048036036102209190810190611267565b6107ed565b6040516102329190611583565b60405180910390f35b61025560048036036102509190810190611267565b6108a6565b604051610264939291906115a5565b60405180910390f35b61028760048036036102829190810190611138565b610968565b6040516102949190611532565b60405180910390f35b6102a561099e565b6040516102b29190611583565b60405180910390f35b6102c3610a3c565b6040516102d09190611583565b60405180910390f35b6102f360048036036102ee91908101906111ba565b610ada565b005b6102fd610b40565b60405161030a9190611628565b60405180910390f35b61031b610b46565b6040516103289190611628565b60405180910390f35b61034b600480360361034691908101906110e6565b610b4c565b6040516103589190611532565b60405180910390f35b610369610b6c565b604051610378939291906115a5565b60405180910390f35b610389610c1c565b6040516103969190611628565b60405180910390f35b6103a7610c22565b6040516103b49190611583565b60405180910390f35b6103c5610cc0565b6040516103d29190611583565b60405180910390f35b6103e3610d5e565b6040516103f09190611510565b60405180910390f35b610413600480360361040e9190810190611267565b610e47565b604051610420919061154d565b60405180910390f35b610431610e68565b60405161043e9190611583565b60405180910390f35b600b54600a5442031061045957600080fd5b6000803373ffffffffffffffffffffffffffffffffffffffff1673ffffffffffffffffffffffffffffffffffffffff16815260200190815260200160002060009054906101000a900460ff16156104af57600080fd5b6002816040516104bf91906114de565b908152602001604051809103902060009054906101000a900460ff16156104e557600080fd5b600115156104f282610673565b1515146104fe57600080fd5b600782908060018154018082558091505090600182039060005260206000200160009091929091909150908051906020019061053b929190610f06565b505060096000815480929190600101919050555060016000803373ffffffffffffffffffffffffffffffffffffffff1673ffffffffffffffffffffffffffffffffffffffff16815260200190815260200160002060006101000a81548160ff02191690831515021790555060016002826040516105b891906114de565b908152602001604051809103902060006101000a81548160ff021916908315150217905550601560009054906101000a900473ffffffffffffffffffffffffffffffffffffffff1673ffffffffffffffffffffffffffffffffffffffff16636fce13c0600333856040518463ffffffff1660e01b815260040161063d939291906115e3565b600060405180830381600087803b15801561065757600080fd5b505af115801561066b573d6000803e3d6000fd5b505050505050565b60008060028360405161068691906114de565b602060405180830381855afa1580156106a3573d6000803e3d6000fd5b5050506040513d601f19601f820116820180604052506106c6919081019061110f565b905060008090505b60135481101561070f57601281815481106106e557fe5b906000526020600020015482141561070257600192505050610716565b80806001019150506106ce565b5060009150505b919050565b600f5481565b600030905090565b601560009054906101000a900473ffffffffffffffffffffffffffffffffffffffff1681565b60058054600181600116156101000203166002900480601f0160208091040260200160405190810160405280929190818152602001828054600181600116156101000203166002900480156107e55780601f106107ba576101008083540402835291602001916107e5565b820191906000526020600020905b8154815290600101906020018083116107c857829003601f168201915b505050505081565b600781815481106107fa57fe5b906000526020600020016000915090508054600181600116156101000203166002900480601f01602080910402602001604051908101604052809291908181526020018280546001816001161561010002031660029004801561089e5780601f106108735761010080835404028352916020019161089e565b820191906000526020600020905b81548152906001019060200180831161088157829003601f168201915b505050505081565b6001602052806000526040600020600091509050806000018054600181600116156101000203166002900480601f0160208091040260200160405190810160405280929190818152602001828054600181600116156101000203166002900480156109525780601f1061092757610100808354040283529160200191610952565b820191906000526020600020905b81548152906001019060200180831161093557829003601f168201915b5050505050908060010154908060020154905083565b6002818051602081018201805184825260208301602085012081835280955050505050506000915054906101000a900460ff1681565b60038054600181600116156101000203166002900480601f016020809104026020016040519081016040528092919081815260200182805460018160011615610100020316600290048015610a345780601f10610a0957610100808354040283529160200191610a34565b820191906000526020600020905b815481529060010190602001808311610a1757829003601f168201915b505050505081565b60118054600181600116156101000203166002900480601f016020809104026020016040519081016040528092919081815260200182805460018160011615610100020316600290048015610ad25780601f10610aa757610100808354040283529160200191610ad2565b820191906000526020600020905b815481529060010190602001808311610ab557829003601f168201915b505050505081565b8060119080519060200190610af0929190610f06565b506040518060400160405280600881526020017f636f6d706c65746500000000000000000000000000000000000000000000000081525060069080519060200190610b3c929190610f06565b5050565b60145481565b60085481565b60006020528060005260406000206000915054906101000a900460ff1681565b600c806000018054600181600116156101000203166002900480601f016020809104026020016040519081016040528092919081815260200182805460018160011615610100020316600290048015610c065780601f10610bdb57610100808354040283529160200191610c06565b820191906000526020600020905b815481529060010190602001808311610be957829003601f168201915b5050505050908060010154908060020154905083565b60095481565b60048054600181600116156101000203166002900480601f016020809104026020016040519081016040528092919081815260200182805460018160011615610100020316600290048015610cb85780601f10610c8d57610100808354040283529160200191610cb8565b820191906000526020600020905b815481529060010190602001808311610c9b57829003601f168201915b505050505081565b60068054600181600116156101000203166002900480601f016020809104026020016040519081016040528092919081815260200182805460018160011615610100020316600290048015610d565780601f10610d2b57610100808354040283529160200191610d56565b820191906000526020600020905b815481529060010190602001808311610d3957829003601f168201915b505050505081565b60606007805480602002602001604051908101604052809291908181526020016000905b82821015610e3e578382906000526020600020018054600181600116156101000203166002900480601f016020809104026020016040519081016040528092919081815260200182805460018160011615610100020316600290048015610e2a5780601f10610dff57610100808354040283529160200191610e2a565b820191906000526020600020905b815481529060010190602001808311610e0d57829003601f168201915b505050505081526020019060010190610d82565b50505050905090565b60128181548110610e5457fe5b906000526020600020016000915090505481565b60108054600181600116156101000203166002900480601f016020809104026020016040519081016040528092919081815260200182805460018160011615610100020316600290048015610efe5780601f10610ed357610100808354040283529160200191610efe565b820191906000526020600020905b815481529060010190602001808311610ee157829003601f168201915b505050505081565b828054600181600116156101000203166002900490600052602060002090601f016020900481019282601f10610f4757805160ff1916838001178555610f75565b82800160010185558215610f75579182015b82811115610f74578251825591602001919060010190610f59565b5b509050610f829190610f86565b5090565b610fa891905b80821115610fa4576000816000905550600101610f8c565b5090565b90565b600081359050610fba8161188f565b92915050565b600081519050610fcf816118a6565b92915050565b600082601f830112610fe657600080fd5b8135610ff9610ff482611670565b611643565b9150808252602083016020830185838301111561101557600080fd5b61102083828461183c565b50505092915050565b600082601f83011261103a57600080fd5b813561104d6110488261169c565b611643565b9150808252602083016020830185838301111561106957600080fd5b61107483828461183c565b50505092915050565b600082601f83011261108e57600080fd5b81356110a161109c826116c8565b611643565b915080825260208301602083018583830111156110bd57600080fd5b6110c883828461183c565b50505092915050565b6000813590506110e0816118bd565b92915050565b6000602082840312156110f857600080fd5b600061110684828501610fab565b91505092915050565b60006020828403121561112157600080fd5b600061112f84828501610fc0565b91505092915050565b60006020828403121561114a57600080fd5b600082013567ffffffffffffffff81111561116457600080fd5b61117084828501610fd5565b91505092915050565b60006020828403121561118b57600080fd5b600082013567ffffffffffffffff8111156111a557600080fd5b6111b184828501611029565b91505092915050565b6000602082840312156111cc57600080fd5b600082013567ffffffffffffffff8111156111e657600080fd5b6111f28482850161107d565b91505092915050565b6000806040838503121561120e57600080fd5b600083013567ffffffffffffffff81111561122857600080fd5b6112348582860161107d565b925050602083013567ffffffffffffffff81111561125157600080fd5b61125d85828601611029565b9150509250929050565b60006020828403121561127957600080fd5b6000611287848285016110d1565b91505092915050565b600061129c83836113ce565b905092915050565b6112ad816117e2565b82525050565b6112bc81611790565b82525050565b60006112cd82611719565b6112d78185611752565b9350836020820285016112e9856116f4565b8060005b8581101561132557848403895281516113068582611290565b945061131183611745565b925060208a019950506001810190506112ed565b50829750879550505050505092915050565b611340816117a2565b82525050565b61134f816117ae565b82525050565b600061136082611724565b61136a8185611763565b935061137a81856020860161184b565b80840191505092915050565b61138f816117f4565b82525050565b60006113a08261173a565b6113aa818561177f565b93506113ba81856020860161184b565b6113c38161187e565b840191505092915050565b60006113d98261172f565b6113e3818561176e565b93506113f381856020860161184b565b6113fc8161187e565b840191505092915050565b60006114128261172f565b61141c818561177f565b935061142c81856020860161184b565b6114358161187e565b840191505092915050565b60008154600181166000811461145d5760018114611483576114c7565b607f600283041661146e818761177f565b955060ff1983168652602086019350506114c7565b60028204611491818761177f565b955061149c85611704565b60005b828110156114be5781548189015260018201915060208101905061149f565b80880195505050505b505092915050565b6114d8816117d8565b82525050565b60006114ea8284611355565b915081905092915050565b600060208201905061150a60008301846112b3565b92915050565b6000602082019050818103600083015261152a81846112c2565b905092915050565b60006020820190506115476000830184611337565b92915050565b60006020820190506115626000830184611346565b92915050565b600060208201905061157d6000830184611386565b92915050565b6000602082019050818103600083015261159d8184611407565b905092915050565b600060608201905081810360008301526115bf8186611407565b90506115ce60208301856114cf565b6115db60408301846114cf565b949350505050565b600060608201905081810360008301526115fd8186611440565b905061160c60208301856112a4565b818103604083015261161e8184611395565b9050949350505050565b600060208201905061163d60008301846114cf565b92915050565b6000604051905081810181811067ffffffffffffffff8211171561166657600080fd5b8060405250919050565b600067ffffffffffffffff82111561168757600080fd5b601f19601f8301169050602081019050919050565b600067ffffffffffffffff8211156116b357600080fd5b601f19601f8301169050602081019050919050565b600067ffffffffffffffff8211156116df57600080fd5b601f19601f8301169050602081019050919050565b6000819050602082019050919050565b60008190508160005260206000209050919050565b600081519050919050565b600081519050919050565b600081519050919050565b600081519050919050565b6000602082019050919050565b600082825260208201905092915050565b600081905092915050565b600082825260208201905092915050565b600082825260208201905092915050565b600061179b826117b8565b9050919050565b60008115159050919050565b6000819050919050565b600073ffffffffffffffffffffffffffffffffffffffff82169050919050565b6000819050919050565b60006117ed82611818565b9050919050565b60006117ff82611806565b9050919050565b6000611811826117b8565b9050919050565b60006118238261182a565b9050919050565b6000611835826117b8565b9050919050565b82818337600083830152505050565b60005b8381101561186957808201518184015260208101905061184e565b83811115611878576000848401525b50505050565b6000601f19601f8301169050919050565b61189881611790565b81146118a357600080fd5b50565b6118af816117ae565b81146118ba57600080fd5b50565b6118c6816117d8565b81146118d157600080fd5b5056fea365627a7a723158200ad4e0d3210bee6a585dbcce5f68c65a876051960ef1aa439b180cb3fad7d90e6c6578706572696d656e74616cf564736f6c63430005100040a365627a7a72315820e26f8f5eb2f77e725336e1260bdc7919b8d4f615415500731b2a3427690470686c6578706572696d656e74616cf564736f6c63430005100040",
  "source": "// SPDX-License-Identifier: MIT\r\npragma solidity >=0.4.22 <0.8.0;\r\npragma experimental ABIEncoderV2;\r\n\r\nimport \"./Election.sol\";\r\n\r\ncontract ElectionBuilder{\r\n\r\n    Election[] public elections;\r\n    uint public electionCount = 0;\r\n    string[] public usedNames;\r\n\r\n    struct ElectionData {\r\n        string name;\r\n        string deadline;\r\n        string electionType;\r\n    }\r\n\r\n    struct BallotData {\r\n        string name;\r\n        address electionAddress;\r\n        string ballot;\r\n    }\r\n\r\n    mapping(address => string) public electionNames;\r\n    mapping(address => string) public electionDeadlines;\r\n    mapping(address => string) public electionTypes;\r\n    mapping(address => uint) public userElectionCount;\r\n    mapping(address => address[]) public electionCreators;\r\n    mapping(address => uint) public userBallotCount;\r\n    mapping(address => BallotData[]) public userBallots;\r\n    \r\n\r\n    function getElectionData(address _address) public view returns (ElectionData memory) {\r\n        return ElectionData(electionNames[_address], electionDeadlines[_address], electionTypes[_address]);\r\n    }\r\n\r\n    function getUserBallots(address _address) public view returns (BallotData[] memory) {\r\n        uint count = userBallotCount[_address];\r\n        BallotData[] memory ballots = new BallotData[](count);\r\n        for (uint i = 0; i < count; i++) {\r\n            ballots[i] = userBallots[_address][i];\r\n        }\r\n        return ballots;\r\n    }\r\n\r\n    function addUserBallot(string memory _electionName, address _address, string memory _ballot) public {\r\n        BallotData memory ballotData = BallotData(_electionName, _address, _ballot);\r\n        userBallots[_address].push(ballotData);\r\n        userBallotCount[_address] += 1;\r\n    }\r\n\r\n    function checkDuplicateNames(string memory electionName) public view returns (bool) {\r\n        for (uint i = 0; i < electionCount; i++) {\r\n            if (keccak256(abi.encodePacked(electionName)) == keccak256(abi.encodePacked(usedNames[i]))) {\r\n                return false;\r\n            }\r\n        }\r\n        return true;\r\n    }\r\n    \r\n    function deployElection(string memory electionName, string[] memory partyNames, uint time, string memory timeStr, string memory electionType, uint stvSeatCount, string memory electionKey, bytes32[] memory hashedVoterIds, uint validVoterCount) public {\r\n        if (checkDuplicateNames(electionName) == true) {\r\n            Election election = new Election(electionName, partyNames, time, timeStr, electionType, stvSeatCount, electionKey, hashedVoterIds, validVoterCount, address(this));\r\n            elections.push(election);\r\n            usedNames.push(electionName);\r\n            electionNames[address(election)] = electionName;\r\n            electionDeadlines[address(election)] = timeStr;\r\n            electionTypes[address(election)] = electionType;\r\n            electionCreators[msg.sender].push(address(election));\r\n            userElectionCount[msg.sender] += 1;\r\n            electionCount++;\r\n        }\r\n    }\r\n}",
  "sourcePath": "C:\\Users\\boofi\\Desktop\\STV\\2021-ca400-kiragab2-macgabr2\\src\\Ethocracy\\contracts\\ElectionBuilder.sol",
  "compiler": {
    "name": "solc",
    "version": "0.5.16+commit.9c3226ce.Emscripten.clang"
  },
  "schemaVersion": "3.3.3",
  "updatedAt": "2021-05-05T13:56:50.136Z",
  "networkType": "ethereum",
  "devdoc": {
    "methods": {}
  },
  "userdoc": {
    "methods": {}
  }
}