{
  "contractName": "Election",
  "abi": [
    {
      "inputs": [
        {
          "internalType": "string",
          "name": "_electionName",
          "type": "string"
        },
        {
          "internalType": "string[]",
          "name": "partyNames",
          "type": "string[]"
        },
        {
          "internalType": "uint256",
          "name": "_time",
          "type": "uint256"
        },
        {
          "internalType": "string",
          "name": "timeStr",
          "type": "string"
        },
        {
          "internalType": "string",
          "name": "_electionType",
          "type": "string"
        },
        {
          "internalType": "uint256",
          "name": "_stvSeatCount",
          "type": "uint256"
        },
        {
          "internalType": "string",
          "name": "_electionKey",
          "type": "string"
        },
        {
          "internalType": "bytes32[]",
          "name": "_hashedVoterIds",
          "type": "bytes32[]"
        },
        {
          "internalType": "uint256",
          "name": "_validVoterCount",
          "type": "uint256"
        },
        {
          "internalType": "address",
          "name": "_electionBuilder",
          "type": "address"
        }
      ],
      "payable": false,
      "stateMutability": "nonpayable",
      "type": "constructor"
    },
    {
      "constant": true,
      "inputs": [],
      "name": "ballotCount",
      "outputs": [
        {
          "internalType": "uint256",
          "name": "",
          "type": "uint256"
        }
      ],
      "payable": false,
      "stateMutability": "view",
      "type": "function"
    },
    {
      "constant": true,
      "inputs": [
        {
          "internalType": "uint256",
          "name": "",
          "type": "uint256"
        }
      ],
      "name": "ballots",
      "outputs": [
        {
          "internalType": "string",
          "name": "",
          "type": "string"
        }
      ],
      "payable": false,
      "stateMutability": "view",
      "type": "function"
    },
    {
      "constant": true,
      "inputs": [],
      "name": "electionBuilder",
      "outputs": [
        {
          "internalType": "contract ElectionBuilder",
          "name": "",
          "type": "address"
        }
      ],
      "payable": false,
      "stateMutability": "view",
      "type": "function"
    },
    {
      "constant": true,
      "inputs": [],
      "name": "electionDeadline",
      "outputs": [
        {
          "internalType": "string",
          "name": "",
          "type": "string"
        }
      ],
      "payable": false,
      "stateMutability": "view",
      "type": "function"
    },
    {
      "constant": true,
      "inputs": [],
      "name": "electionKey",
      "outputs": [
        {
          "internalType": "string",
          "name": "",
          "type": "string"
        }
      ],
      "payable": false,
      "stateMutability": "view",
      "type": "function"
    },
    {
      "constant": true,
      "inputs": [],
      "name": "electionName",
      "outputs": [
        {
          "internalType": "string",
          "name": "",
          "type": "string"
        }
      ],
      "payable": false,
      "stateMutability": "view",
      "type": "function"
    },
    {
      "constant": true,
      "inputs": [],
      "name": "electionStatus",
      "outputs": [
        {
          "internalType": "string",
          "name": "",
          "type": "string"
        }
      ],
      "payable": false,
      "stateMutability": "view",
      "type": "function"
    },
    {
      "constant": true,
      "inputs": [],
      "name": "electionType",
      "outputs": [
        {
          "internalType": "string",
          "name": "",
          "type": "string"
        }
      ],
      "payable": false,
      "stateMutability": "view",
      "type": "function"
    },
    {
      "constant": true,
      "inputs": [
        {
          "internalType": "uint256",
          "name": "",
          "type": "uint256"
        }
      ],
      "name": "hashedVoterIds",
      "outputs": [
        {
          "internalType": "bytes32",
          "name": "",
          "type": "bytes32"
        }
      ],
      "payable": false,
      "stateMutability": "view",
      "type": "function"
    },
    {
      "constant": true,
      "inputs": [
        {
          "internalType": "uint256",
          "name": "",
          "type": "uint256"
        }
      ],
      "name": "parties",
      "outputs": [
        {
          "internalType": "string",
          "name": "name",
          "type": "string"
        },
        {
          "internalType": "uint256",
          "name": "id",
          "type": "uint256"
        }
      ],
      "payable": false,
      "stateMutability": "view",
      "type": "function"
    },
    {
      "constant": true,
      "inputs": [],
      "name": "partyCount",
      "outputs": [
        {
          "internalType": "uint256",
          "name": "",
          "type": "uint256"
        }
      ],
      "payable": false,
      "stateMutability": "view",
      "type": "function"
    },
    {
      "constant": true,
      "inputs": [],
      "name": "resultKey",
      "outputs": [
        {
          "internalType": "string",
          "name": "",
          "type": "string"
        }
      ],
      "payable": false,
      "stateMutability": "view",
      "type": "function"
    },
    {
      "constant": true,
      "inputs": [
        {
          "internalType": "bytes",
          "name": "",
          "type": "bytes"
        }
      ],
      "name": "spentVoterIds",
      "outputs": [
        {
          "internalType": "bool",
          "name": "",
          "type": "bool"
        }
      ],
      "payable": false,
      "stateMutability": "view",
      "type": "function"
    },
    {
      "constant": true,
      "inputs": [],
      "name": "stvSeatCount",
      "outputs": [
        {
          "internalType": "uint256",
          "name": "",
          "type": "uint256"
        }
      ],
      "payable": false,
      "stateMutability": "view",
      "type": "function"
    },
    {
      "constant": true,
      "inputs": [
        {
          "internalType": "address",
          "name": "",
          "type": "address"
        }
      ],
      "name": "voters",
      "outputs": [
        {
          "internalType": "bool",
          "name": "",
          "type": "bool"
        }
      ],
      "payable": false,
      "stateMutability": "view",
      "type": "function"
    },
    {
      "constant": true,
      "inputs": [],
      "name": "winnerVoteCount",
      "outputs": [
        {
          "internalType": "uint256",
          "name": "",
          "type": "uint256"
        }
      ],
      "payable": false,
      "stateMutability": "view",
      "type": "function"
    },
    {
      "constant": true,
      "inputs": [],
      "name": "winningParty",
      "outputs": [
        {
          "internalType": "string",
          "name": "name",
          "type": "string"
        },
        {
          "internalType": "uint256",
          "name": "id",
          "type": "uint256"
        }
      ],
      "payable": false,
      "stateMutability": "view",
      "type": "function"
    },
    {
      "constant": true,
      "inputs": [],
      "name": "getAddress",
      "outputs": [
        {
          "internalType": "address",
          "name": "",
          "type": "address"
        }
      ],
      "payable": false,
      "stateMutability": "view",
      "type": "function"
    },
    {
      "constant": true,
      "inputs": [],
      "name": "getBallots",
      "outputs": [
        {
          "internalType": "string[]",
          "name": "",
          "type": "string[]"
        }
      ],
      "payable": false,
      "stateMutability": "view",
      "type": "function"
    },
    {
      "constant": false,
      "inputs": [
        {
          "internalType": "string",
          "name": "_resultKey",
          "type": "string"
        }
      ],
      "name": "releaseResultKey",
      "outputs": [],
      "payable": false,
      "stateMutability": "nonpayable",
      "type": "function"
    },
    {
      "constant": true,
      "inputs": [
        {
          "internalType": "bytes",
          "name": "_voterId",
          "type": "bytes"
        }
      ],
      "name": "validateUser",
      "outputs": [
        {
          "internalType": "bool",
          "name": "",
          "type": "bool"
        }
      ],
      "payable": false,
      "stateMutability": "view",
      "type": "function"
    },
    {
      "constant": false,
      "inputs": [
        {
          "internalType": "string",
          "name": "_vote",
          "type": "string"
        },
        {
          "internalType": "bytes",
          "name": "_voterId",
          "type": "bytes"
        }
      ],
      "name": "castVote",
      "outputs": [],
      "payable": false,
      "stateMutability": "nonpayable",
      "type": "function"
    }
  ],
  "bytecode": "0x60806040526000600855600060095542600a556000600e556040518060400160405280600581526020017f6e6f4b657900000000000000000000000000000000000000000000000000000081525060109080519060200190620000649291906200027a565b503480156200007257600080fd5b506040516200226838038062002268833981810160405262000098919081019062000631565b8960039080519060200190620000b09291906200027a565b5087600b819055508660049080519060200190620000d09291906200027a565b508560059080519060200190620000e99291906200027a565b5083600f9080519060200190620001029291906200027a565b5082601190805190602001906200011b92919062000301565b50816012819055508460138190555080601460006101000a81548173ffffffffffffffffffffffffffffffffffffffff021916908373ffffffffffffffffffffffffffffffffffffffff1602179055506040518060400160405280600a81526020017f696e50726f67726573730000000000000000000000000000000000000000000081525060069080519060200190620001b89291906200027a565b5060008090505b8951811015620001fc57620001ee8a8281518110620001da57fe5b60200260200101516200020d60201b60201c565b8080600101915050620001bf565b50505050505050505050506200095d565b604051806040016040528082815260200160085481525060016000600854815260200190815260200160002060008201518160000190805190602001906200025792919062000353565b506020820151816001015590505060086000815480929190600101919050555050565b828054600181600116156101000203166002900490600052602060002090601f016020900481019282601f10620002bd57805160ff1916838001178555620002ee565b82800160010185558215620002ee579182015b82811115620002ed578251825591602001919060010190620002d0565b5b509050620002fd9190620003da565b5090565b82805482825590600052602060002090810192821562000340579160200282015b828111156200033f57825182559160200191906001019062000322565b5b5090506200034f919062000402565b5090565b828054600181600116156101000203166002900490600052602060002090601f016020900481019282601f106200039657805160ff1916838001178555620003c7565b82800160010185558215620003c7579182015b82811115620003c6578251825591602001919060010190620003a9565b5b509050620003d69190620003da565b5090565b620003ff91905b80821115620003fb576000816000905550600101620003e1565b5090565b90565b6200042791905b808211156200042357600081600090555060010162000409565b5090565b90565b6000815190506200043b816200090f565b92915050565b600082601f8301126200045357600080fd5b81516200046a6200046482620007e5565b620007b7565b915081818352602084019350602081019050838560208402820111156200049057600080fd5b60005b83811015620004c45781620004a988826200054b565b84526020840193506020830192505060018101905062000493565b5050505092915050565b600082601f830112620004e057600080fd5b8151620004f7620004f1826200080e565b620007b7565b9150818183526020840193506020810190508360005b8381101562000541578151860162000526888262000562565b8452602084019350602083019250506001810190506200050d565b5050505092915050565b6000815190506200055c8162000929565b92915050565b600082601f8301126200057457600080fd5b81516200058b620005858262000837565b620007b7565b91508082526020830160208301858383011115620005a857600080fd5b620005b5838284620008d9565b50505092915050565b600082601f830112620005d057600080fd5b8151620005e7620005e18262000864565b620007b7565b915080825260208301602083018583830111156200060457600080fd5b62000611838284620008d9565b50505092915050565b6000815190506200062b8162000943565b92915050565b6000806000806000806000806000806101408b8d0312156200065257600080fd5b60008b015167ffffffffffffffff8111156200066d57600080fd5b6200067b8d828e01620005be565b9a505060208b015167ffffffffffffffff8111156200069957600080fd5b620006a78d828e01620004ce565b9950506040620006ba8d828e016200061a565b98505060608b015167ffffffffffffffff811115620006d857600080fd5b620006e68d828e01620005be565b97505060808b015167ffffffffffffffff8111156200070457600080fd5b620007128d828e01620005be565b96505060a0620007258d828e016200061a565b95505060c08b015167ffffffffffffffff8111156200074357600080fd5b620007518d828e01620005be565b94505060e08b015167ffffffffffffffff8111156200076f57600080fd5b6200077d8d828e0162000441565b935050610100620007918d828e016200061a565b925050610120620007a58d828e016200042a565b9150509295989b9194979a5092959850565b6000604051905081810181811067ffffffffffffffff82111715620007db57600080fd5b8060405250919050565b600067ffffffffffffffff821115620007fd57600080fd5b602082029050602081019050919050565b600067ffffffffffffffff8211156200082657600080fd5b602082029050602081019050919050565b600067ffffffffffffffff8211156200084f57600080fd5b601f19601f8301169050602081019050919050565b600067ffffffffffffffff8211156200087c57600080fd5b601f19601f8301169050602081019050919050565b60006200089e82620008af565b9050919050565b6000819050919050565b600073ffffffffffffffffffffffffffffffffffffffff82169050919050565b6000819050919050565b60005b83811015620008f9578082015181840152602081019050620008dc565b8381111562000909576000848401525b50505050565b6200091a8162000891565b81146200092657600080fd5b50565b6200093481620008a5565b81146200094057600080fd5b50565b6200094e81620008cf565b81146200095a57600080fd5b50565b6118fb806200096d6000396000f3fe608060405234801561001057600080fd5b50600436106101425760003560e01c80638e05bd08116100b8578063c00300321161007c578063c00300321461037f578063d3d8b9a21461039d578063eaef0349146103bb578063eb87c6dc146103d9578063f8bf89b5146103f7578063fa3d85461461042757610142565b80638e05bd08146102d85780639a53c45a146102f45780639eb8e72514610312578063a3ec138d14610330578063ae315fe41461036057610142565b80634885c72a1161010a5780634885c72a146101ed5780635c632b381461020b57806370651a181461023b5780638245d99e1461026c57806385e8e7a71461029c5780638c4f3820146102ba57610142565b8063202ed64314610147578063242b2826146101635780632f22850d1461019357806338cc4831146101b15780633a84e39d146101cf575b600080fd5b610161600480360361015c91908101906111ed565b610445565b005b61017d6004803603610178919081019061116b565b610671565b60405161018a9190611524565b60405180910390f35b61019b610719565b6040516101a8919061160c565b60405180910390f35b6101b961071f565b6040516101c691906114e7565b60405180910390f35b6101d7610727565b6040516101e4919061155a565b60405180910390f35b6101f561074d565b6040516102029190611575565b60405180910390f35b61022560048036036102209190810190611259565b6107eb565b6040516102329190611575565b60405180910390f35b61025560048036036102509190810190611259565b6108a4565b604051610263929190611597565b60405180910390f35b6102866004803603610281919081019061112a565b610960565b6040516102939190611524565b60405180910390f35b6102a4610996565b6040516102b19190611575565b60405180910390f35b6102c2610a34565b6040516102cf9190611575565b60405180910390f35b6102f260048036036102ed91908101906111ac565b610ad2565b005b6102fc610b38565b604051610309919061160c565b60405180910390f35b61031a610b3e565b604051610327919061160c565b60405180910390f35b61034a600480360361034591908101906110d8565b610b44565b6040516103579190611524565b60405180910390f35b610368610b64565b604051610376929190611597565b60405180910390f35b610387610c0e565b604051610394919061160c565b60405180910390f35b6103a5610c14565b6040516103b29190611575565b60405180910390f35b6103c3610cb2565b6040516103d09190611575565b60405180910390f35b6103e1610d50565b6040516103ee9190611502565b60405180910390f35b610411600480360361040c9190810190611259565b610e39565b60405161041e919061153f565b60405180910390f35b61042f610e5a565b60405161043c9190611575565b60405180910390f35b600b54600a5442031061045757600080fd5b6000803373ffffffffffffffffffffffffffffffffffffffff1673ffffffffffffffffffffffffffffffffffffffff16815260200190815260200160002060009054906101000a900460ff16156104ad57600080fd5b6002816040516104bd91906114d0565b908152602001604051809103902060009054906101000a900460ff16156104e357600080fd5b600115156104f082610671565b1515146104fc57600080fd5b6007829080600181540180825580915050906001820390600052602060002001600090919290919091509080519060200190610539929190610ef8565b505060096000815480929190600101919050555060016000803373ffffffffffffffffffffffffffffffffffffffff1673ffffffffffffffffffffffffffffffffffffffff16815260200190815260200160002060006101000a81548160ff02191690831515021790555060016002826040516105b691906114d0565b908152602001604051809103902060006101000a81548160ff021916908315150217905550601460009054906101000a900473ffffffffffffffffffffffffffffffffffffffff1673ffffffffffffffffffffffffffffffffffffffff16636fce13c0600333856040518463ffffffff1660e01b815260040161063b939291906115c7565b600060405180830381600087803b15801561065557600080fd5b505af1158015610669573d6000803e3d6000fd5b505050505050565b60008060028360405161068491906114d0565b602060405180830381855afa1580156106a1573d6000803e3d6000fd5b5050506040513d601f19601f820116820180604052506106c49190810190611101565b905060008090505b60125481101561070d57601181815481106106e357fe5b906000526020600020015482141561070057600192505050610714565b80806001019150506106cc565b5060009150505b919050565b600e5481565b600030905090565b601460009054906101000a900473ffffffffffffffffffffffffffffffffffffffff1681565b60058054600181600116156101000203166002900480601f0160208091040260200160405190810160405280929190818152602001828054600181600116156101000203166002900480156107e35780601f106107b8576101008083540402835291602001916107e3565b820191906000526020600020905b8154815290600101906020018083116107c657829003601f168201915b505050505081565b600781815481106107f857fe5b906000526020600020016000915090508054600181600116156101000203166002900480601f01602080910402602001604051908101604052809291908181526020018280546001816001161561010002031660029004801561089c5780601f106108715761010080835404028352916020019161089c565b820191906000526020600020905b81548152906001019060200180831161087f57829003601f168201915b505050505081565b6001602052806000526040600020600091509050806000018054600181600116156101000203166002900480601f0160208091040260200160405190810160405280929190818152602001828054600181600116156101000203166002900480156109505780601f1061092557610100808354040283529160200191610950565b820191906000526020600020905b81548152906001019060200180831161093357829003601f168201915b5050505050908060010154905082565b6002818051602081018201805184825260208301602085012081835280955050505050506000915054906101000a900460ff1681565b60038054600181600116156101000203166002900480601f016020809104026020016040519081016040528092919081815260200182805460018160011615610100020316600290048015610a2c5780601f10610a0157610100808354040283529160200191610a2c565b820191906000526020600020905b815481529060010190602001808311610a0f57829003601f168201915b505050505081565b60108054600181600116156101000203166002900480601f016020809104026020016040519081016040528092919081815260200182805460018160011615610100020316600290048015610aca5780601f10610a9f57610100808354040283529160200191610aca565b820191906000526020600020905b815481529060010190602001808311610aad57829003601f168201915b505050505081565b8060109080519060200190610ae8929190610ef8565b506040518060400160405280600881526020017f636f6d706c65746500000000000000000000000000000000000000000000000081525060069080519060200190610b34929190610ef8565b5050565b60135481565b60085481565b60006020528060005260406000206000915054906101000a900460ff1681565b600c806000018054600181600116156101000203166002900480601f016020809104026020016040519081016040528092919081815260200182805460018160011615610100020316600290048015610bfe5780601f10610bd357610100808354040283529160200191610bfe565b820191906000526020600020905b815481529060010190602001808311610be157829003601f168201915b5050505050908060010154905082565b60095481565b60048054600181600116156101000203166002900480601f016020809104026020016040519081016040528092919081815260200182805460018160011615610100020316600290048015610caa5780601f10610c7f57610100808354040283529160200191610caa565b820191906000526020600020905b815481529060010190602001808311610c8d57829003601f168201915b505050505081565b60068054600181600116156101000203166002900480601f016020809104026020016040519081016040528092919081815260200182805460018160011615610100020316600290048015610d485780601f10610d1d57610100808354040283529160200191610d48565b820191906000526020600020905b815481529060010190602001808311610d2b57829003601f168201915b505050505081565b60606007805480602002602001604051908101604052809291908181526020016000905b82821015610e30578382906000526020600020018054600181600116156101000203166002900480601f016020809104026020016040519081016040528092919081815260200182805460018160011615610100020316600290048015610e1c5780601f10610df157610100808354040283529160200191610e1c565b820191906000526020600020905b815481529060010190602001808311610dff57829003601f168201915b505050505081526020019060010190610d74565b50505050905090565b60118181548110610e4657fe5b906000526020600020016000915090505481565b600f8054600181600116156101000203166002900480601f016020809104026020016040519081016040528092919081815260200182805460018160011615610100020316600290048015610ef05780601f10610ec557610100808354040283529160200191610ef0565b820191906000526020600020905b815481529060010190602001808311610ed357829003601f168201915b505050505081565b828054600181600116156101000203166002900490600052602060002090601f016020900481019282601f10610f3957805160ff1916838001178555610f67565b82800160010185558215610f67579182015b82811115610f66578251825591602001919060010190610f4b565b5b509050610f749190610f78565b5090565b610f9a91905b80821115610f96576000816000905550600101610f7e565b5090565b90565b600081359050610fac81611873565b92915050565b600081519050610fc18161188a565b92915050565b600082601f830112610fd857600080fd5b8135610feb610fe682611654565b611627565b9150808252602083016020830185838301111561100757600080fd5b611012838284611820565b50505092915050565b600082601f83011261102c57600080fd5b813561103f61103a82611680565b611627565b9150808252602083016020830185838301111561105b57600080fd5b611066838284611820565b50505092915050565b600082601f83011261108057600080fd5b813561109361108e826116ac565b611627565b915080825260208301602083018583830111156110af57600080fd5b6110ba838284611820565b50505092915050565b6000813590506110d2816118a1565b92915050565b6000602082840312156110ea57600080fd5b60006110f884828501610f9d565b91505092915050565b60006020828403121561111357600080fd5b600061112184828501610fb2565b91505092915050565b60006020828403121561113c57600080fd5b600082013567ffffffffffffffff81111561115657600080fd5b61116284828501610fc7565b91505092915050565b60006020828403121561117d57600080fd5b600082013567ffffffffffffffff81111561119757600080fd5b6111a38482850161101b565b91505092915050565b6000602082840312156111be57600080fd5b600082013567ffffffffffffffff8111156111d857600080fd5b6111e48482850161106f565b91505092915050565b6000806040838503121561120057600080fd5b600083013567ffffffffffffffff81111561121a57600080fd5b6112268582860161106f565b925050602083013567ffffffffffffffff81111561124357600080fd5b61124f8582860161101b565b9150509250929050565b60006020828403121561126b57600080fd5b6000611279848285016110c3565b91505092915050565b600061128e83836113c0565b905092915050565b61129f816117c6565b82525050565b6112ae81611774565b82525050565b60006112bf826116fd565b6112c98185611736565b9350836020820285016112db856116d8565b8060005b8581101561131757848403895281516112f88582611282565b945061130383611729565b925060208a019950506001810190506112df565b50829750879550505050505092915050565b61133281611786565b82525050565b61134181611792565b82525050565b600061135282611708565b61135c8185611747565b935061136c81856020860161182f565b80840191505092915050565b611381816117d8565b82525050565b60006113928261171e565b61139c8185611763565b93506113ac81856020860161182f565b6113b581611862565b840191505092915050565b60006113cb82611713565b6113d58185611752565b93506113e581856020860161182f565b6113ee81611862565b840191505092915050565b600061140482611713565b61140e8185611763565b935061141e81856020860161182f565b61142781611862565b840191505092915050565b60008154600181166000811461144f5760018114611475576114b9565b607f60028304166114608187611763565b955060ff1983168652602086019350506114b9565b600282046114838187611763565b955061148e856116e8565b60005b828110156114b057815481890152600182019150602081019050611491565b80880195505050505b505092915050565b6114ca816117bc565b82525050565b60006114dc8284611347565b915081905092915050565b60006020820190506114fc60008301846112a5565b92915050565b6000602082019050818103600083015261151c81846112b4565b905092915050565b60006020820190506115396000830184611329565b92915050565b60006020820190506115546000830184611338565b92915050565b600060208201905061156f6000830184611378565b92915050565b6000602082019050818103600083015261158f81846113f9565b905092915050565b600060408201905081810360008301526115b181856113f9565b90506115c060208301846114c1565b9392505050565b600060608201905081810360008301526115e18186611432565b90506115f06020830185611296565b81810360408301526116028184611387565b9050949350505050565b600060208201905061162160008301846114c1565b92915050565b6000604051905081810181811067ffffffffffffffff8211171561164a57600080fd5b8060405250919050565b600067ffffffffffffffff82111561166b57600080fd5b601f19601f8301169050602081019050919050565b600067ffffffffffffffff82111561169757600080fd5b601f19601f8301169050602081019050919050565b600067ffffffffffffffff8211156116c357600080fd5b601f19601f8301169050602081019050919050565b6000819050602082019050919050565b60008190508160005260206000209050919050565b600081519050919050565b600081519050919050565b600081519050919050565b600081519050919050565b6000602082019050919050565b600082825260208201905092915050565b600081905092915050565b600082825260208201905092915050565b600082825260208201905092915050565b600061177f8261179c565b9050919050565b60008115159050919050565b6000819050919050565b600073ffffffffffffffffffffffffffffffffffffffff82169050919050565b6000819050919050565b60006117d1826117fc565b9050919050565b60006117e3826117ea565b9050919050565b60006117f58261179c565b9050919050565b60006118078261180e565b9050919050565b60006118198261179c565b9050919050565b82818337600083830152505050565b60005b8381101561184d578082015181840152602081019050611832565b8381111561185c576000848401525b50505050565b6000601f19601f8301169050919050565b61187c81611774565b811461188757600080fd5b50565b61189381611792565b811461189e57600080fd5b50565b6118aa816117bc565b81146118b557600080fd5b5056fea365627a7a723158209d21be80d1d6589055e967923b3d242a75a4514beb7712ecebfea85839ae71796c6578706572696d656e74616cf564736f6c63430005100040",
  "source": "// SPDX-License-Identifier: MIT\r\npragma solidity >=0.4.22 <0.8.0;\r\npragma experimental ABIEncoderV2;\r\n\r\nimport \"./ElectionBuilder.sol\";\r\n\r\ncontract Election {\r\n\r\n    struct Party {\r\n        string name;\r\n        uint id;\r\n    }\r\n\r\n    //solidity provides getter and setter functions for all mappings/varriables\r\n    mapping(address => bool) public voters;\r\n    mapping(uint => Party) public parties;\r\n    mapping(bytes => bool) public spentVoterIds;\r\n\r\n    string public electionName;\r\n    string public electionDeadline;\r\n    string public electionType;\r\n    string public electionStatus;\r\n\r\n    string[] public ballots;\r\n    uint public partyCount = 0;\r\n    uint public ballotCount = 0;\r\n    uint startTime = block.timestamp;\r\n    uint allowedTime ;\r\n\r\n    Party public winningParty;\r\n    uint public winnerVoteCount = 0;\r\n\r\n    string public electionKey;\r\n    string public resultKey = \"noKey\";\r\n\r\n    bytes32[] public hashedVoterIds;\r\n    uint validVoterCount;\r\n\r\n    uint public stvSeatCount;\r\n    ElectionBuilder public electionBuilder;\r\n\r\n    constructor(string memory _electionName, string[] memory partyNames, uint _time, string memory timeStr, string memory _electionType, uint _stvSeatCount, string memory _electionKey, bytes32[] memory _hashedVoterIds, uint _validVoterCount, address _electionBuilder) public {\r\n        electionName = _electionName;\r\n        allowedTime = _time;\r\n        electionDeadline = timeStr;\r\n        electionType = _electionType;\r\n        electionKey = _electionKey;\r\n        hashedVoterIds = _hashedVoterIds;\r\n        validVoterCount = _validVoterCount;\r\n        stvSeatCount = _stvSeatCount;\r\n        electionBuilder = ElectionBuilder(_electionBuilder);\r\n        electionStatus = \"inProgress\";\r\n        for (uint i = 0; i < partyNames.length; i++) {\r\n            addParty(partyNames[i]);\r\n        }\r\n    }\r\n\r\n    function getAddress () public view returns (address) {\r\n        return address(this);\r\n    }\r\n\r\n    function getBallots() public view returns (string[] memory) {\r\n        return ballots;\r\n    }\r\n\r\n    //\r\n    function releaseResultKey (string memory _resultKey) public {\r\n        resultKey = _resultKey;\r\n        electionStatus = \"complete\";\r\n    }\r\n\r\n    function addParty (string memory _name) private {\r\n        parties[partyCount] = Party(_name, partyCount);\r\n        partyCount ++;\r\n    }\r\n\r\n    function validateUser (bytes memory _voterId) public view returns (bool) {\r\n        bytes32 hashedVoterId = sha256(_voterId);\r\n        for (uint i = 0; i < validVoterCount; i++) {\r\n            if (hashedVoterId == hashedVoterIds[i]) {\r\n                return true;\r\n            }\r\n        }\r\n        return false;\r\n    }\r\n\r\n    function castVote (string memory _vote, bytes memory _voterId) public {\r\n        require(block.timestamp - startTime < allowedTime);\r\n        require(!voters[msg.sender]);\r\n        require(!spentVoterIds[_voterId]);\r\n        require(validateUser(_voterId) == true);\r\n        ballots.push(_vote);\r\n        ballotCount++;\r\n        voters[msg.sender] = true;\r\n        spentVoterIds[_voterId] = true;\r\n        electionBuilder.addUserBallot(electionName, msg.sender, _vote);\r\n    }\r\n}",
  "sourcePath": "C:\\Users\\boofi\\Desktop\\Demo\\2021-ca400-kiragab2-macgabr2\\src\\Ethocracy\\contracts\\Election.sol",
  "compiler": {
    "name": "solc",
    "version": "0.5.16+commit.9c3226ce.Emscripten.clang"
  },
  "schemaVersion": "3.3.3",
  "updatedAt": "2021-05-07T14:27:31.175Z",
  "devdoc": {
    "methods": {}
  },
  "userdoc": {
    "methods": {}
  }
}