{
  "contractName": "Election",
  "abi": [
    {
      "inputs": [
        {
          "internalType": "string",
          "name": "_electionName",
          "type": "string"
        },
        {
          "internalType": "string[]",
          "name": "partyNames",
          "type": "string[]"
        },
        {
          "internalType": "uint256",
          "name": "_time",
          "type": "uint256"
        },
        {
          "internalType": "string",
          "name": "timeStr",
          "type": "string"
        },
        {
          "internalType": "string",
          "name": "_electionType",
          "type": "string"
        },
        {
          "internalType": "uint256",
          "name": "_stvSeatCount",
          "type": "uint256"
        },
        {
          "internalType": "string",
          "name": "_electionKey",
          "type": "string"
        },
        {
          "internalType": "bytes32[]",
          "name": "_hashedVoterIds",
          "type": "bytes32[]"
        },
        {
          "internalType": "uint256",
          "name": "_validVoterCount",
          "type": "uint256"
        },
        {
          "internalType": "address",
          "name": "_electionBuilder",
          "type": "address"
        }
      ],
      "payable": false,
      "stateMutability": "nonpayable",
      "type": "constructor"
    },
    {
      "constant": true,
      "inputs": [],
      "name": "ballotCount",
      "outputs": [
        {
          "internalType": "uint256",
          "name": "",
          "type": "uint256"
        }
      ],
      "payable": false,
      "stateMutability": "view",
      "type": "function"
    },
    {
      "constant": true,
      "inputs": [
        {
          "internalType": "uint256",
          "name": "",
          "type": "uint256"
        }
      ],
      "name": "ballots",
      "outputs": [
        {
          "internalType": "string",
          "name": "",
          "type": "string"
        }
      ],
      "payable": false,
      "stateMutability": "view",
      "type": "function"
    },
    {
      "constant": true,
      "inputs": [],
      "name": "electionBuilder",
      "outputs": [
        {
          "internalType": "contract ElectionBuilder",
          "name": "",
          "type": "address"
        }
      ],
      "payable": false,
      "stateMutability": "view",
      "type": "function"
    },
    {
      "constant": true,
      "inputs": [],
      "name": "electionDeadline",
      "outputs": [
        {
          "internalType": "string",
          "name": "",
          "type": "string"
        }
      ],
      "payable": false,
      "stateMutability": "view",
      "type": "function"
    },
    {
      "constant": true,
      "inputs": [],
      "name": "electionKey",
      "outputs": [
        {
          "internalType": "string",
          "name": "",
          "type": "string"
        }
      ],
      "payable": false,
      "stateMutability": "view",
      "type": "function"
    },
    {
      "constant": true,
      "inputs": [],
      "name": "electionName",
      "outputs": [
        {
          "internalType": "string",
          "name": "",
          "type": "string"
        }
      ],
      "payable": false,
      "stateMutability": "view",
      "type": "function"
    },
    {
      "constant": true,
      "inputs": [],
      "name": "electionStatus",
      "outputs": [
        {
          "internalType": "string",
          "name": "",
          "type": "string"
        }
      ],
      "payable": false,
      "stateMutability": "view",
      "type": "function"
    },
    {
      "constant": true,
      "inputs": [],
      "name": "electionType",
      "outputs": [
        {
          "internalType": "string",
          "name": "",
          "type": "string"
        }
      ],
      "payable": false,
      "stateMutability": "view",
      "type": "function"
    },
    {
      "constant": true,
      "inputs": [
        {
          "internalType": "uint256",
          "name": "",
          "type": "uint256"
        }
      ],
      "name": "hashedVoterIds",
      "outputs": [
        {
          "internalType": "bytes32",
          "name": "",
          "type": "bytes32"
        }
      ],
      "payable": false,
      "stateMutability": "view",
      "type": "function"
    },
    {
      "constant": true,
      "inputs": [
        {
          "internalType": "uint256",
          "name": "",
          "type": "uint256"
        }
      ],
      "name": "parties",
      "outputs": [
        {
          "internalType": "string",
          "name": "name",
          "type": "string"
        },
        {
          "internalType": "uint256",
          "name": "id",
          "type": "uint256"
        },
        {
          "internalType": "uint256",
          "name": "votes",
          "type": "uint256"
        }
      ],
      "payable": false,
      "stateMutability": "view",
      "type": "function"
    },
    {
      "constant": true,
      "inputs": [],
      "name": "partyCount",
      "outputs": [
        {
          "internalType": "uint256",
          "name": "",
          "type": "uint256"
        }
      ],
      "payable": false,
      "stateMutability": "view",
      "type": "function"
    },
    {
      "constant": true,
      "inputs": [],
      "name": "resultKey",
      "outputs": [
        {
          "internalType": "string",
          "name": "",
          "type": "string"
        }
      ],
      "payable": false,
      "stateMutability": "view",
      "type": "function"
    },
    {
      "constant": true,
      "inputs": [
        {
          "internalType": "bytes",
          "name": "",
          "type": "bytes"
        }
      ],
      "name": "spentVoterIds",
      "outputs": [
        {
          "internalType": "bool",
          "name": "",
          "type": "bool"
        }
      ],
      "payable": false,
      "stateMutability": "view",
      "type": "function"
    },
    {
      "constant": true,
      "inputs": [],
      "name": "stvSeatCount",
      "outputs": [
        {
          "internalType": "uint256",
          "name": "",
          "type": "uint256"
        }
      ],
      "payable": false,
      "stateMutability": "view",
      "type": "function"
    },
    {
      "constant": true,
      "inputs": [
        {
          "internalType": "address",
          "name": "",
          "type": "address"
        }
      ],
      "name": "voters",
      "outputs": [
        {
          "internalType": "bool",
          "name": "",
          "type": "bool"
        }
      ],
      "payable": false,
      "stateMutability": "view",
      "type": "function"
    },
    {
      "constant": true,
      "inputs": [],
      "name": "winnerVoteCount",
      "outputs": [
        {
          "internalType": "uint256",
          "name": "",
          "type": "uint256"
        }
      ],
      "payable": false,
      "stateMutability": "view",
      "type": "function"
    },
    {
      "constant": true,
      "inputs": [],
      "name": "winningParty",
      "outputs": [
        {
          "internalType": "string",
          "name": "name",
          "type": "string"
        },
        {
          "internalType": "uint256",
          "name": "id",
          "type": "uint256"
        },
        {
          "internalType": "uint256",
          "name": "votes",
          "type": "uint256"
        }
      ],
      "payable": false,
      "stateMutability": "view",
      "type": "function"
    },
    {
      "constant": true,
      "inputs": [],
      "name": "getAddress",
      "outputs": [
        {
          "internalType": "address",
          "name": "",
          "type": "address"
        }
      ],
      "payable": false,
      "stateMutability": "view",
      "type": "function"
    },
    {
      "constant": true,
      "inputs": [],
      "name": "getBallots",
      "outputs": [
        {
          "internalType": "string[]",
          "name": "",
          "type": "string[]"
        }
      ],
      "payable": false,
      "stateMutability": "view",
      "type": "function"
    },
    {
      "constant": false,
      "inputs": [
        {
          "internalType": "string",
          "name": "_resultKey",
          "type": "string"
        }
      ],
      "name": "releaseResultKey",
      "outputs": [],
      "payable": false,
      "stateMutability": "nonpayable",
      "type": "function"
    },
    {
      "constant": true,
      "inputs": [
        {
          "internalType": "bytes",
          "name": "_voterId",
          "type": "bytes"
        }
      ],
      "name": "validateUser",
      "outputs": [
        {
          "internalType": "bool",
          "name": "",
          "type": "bool"
        }
      ],
      "payable": false,
      "stateMutability": "view",
      "type": "function"
    },
    {
      "constant": false,
      "inputs": [
        {
          "internalType": "string",
          "name": "_vote",
          "type": "string"
        },
        {
          "internalType": "bytes",
          "name": "_voterId",
          "type": "bytes"
        }
      ],
      "name": "castVote",
      "outputs": [],
      "payable": false,
      "stateMutability": "nonpayable",
      "type": "function"
    }
  ],
  "bytecode": "0x60806040526000600855600060095542600a55601e600b556000600f556040518060400160405280600581526020017f6e6f4b6579000000000000000000000000000000000000000000000000000000815250601190805190602001906200006992919062000290565b503480156200007757600080fd5b506040516200229a3803806200229a83398181016040526200009d919081019062000647565b8960039080519060200190620000b592919062000290565b5087600b819055508660049080519060200190620000d592919062000290565b508560059080519060200190620000ee92919062000290565b5083601090805190602001906200010792919062000290565b5082601290805190602001906200012092919062000317565b50816013819055508460148190555080601560006101000a81548173ffffffffffffffffffffffffffffffffffffffff021916908373ffffffffffffffffffffffffffffffffffffffff1602179055506040518060400160405280600a81526020017f696e50726f67726573730000000000000000000000000000000000000000000081525060069080519060200190620001bd92919062000290565b5060008090505b89518110156200020157620001f38a8281518110620001df57fe5b60200260200101516200021260201b60201c565b8080600101915050620001c4565b505050505050505050505062000973565b60405180606001604052808281526020016008548152602001600081525060016000600854815260200190815260200160002060008201518160000190805190602001906200026392919062000369565b50602082015181600101556040820151816002015590505060086000815480929190600101919050555050565b828054600181600116156101000203166002900490600052602060002090601f016020900481019282601f10620002d357805160ff191683800117855562000304565b8280016001018555821562000304579182015b8281111562000303578251825591602001919060010190620002e6565b5b509050620003139190620003f0565b5090565b82805482825590600052602060002090810192821562000356579160200282015b828111156200035557825182559160200191906001019062000338565b5b50905062000365919062000418565b5090565b828054600181600116156101000203166002900490600052602060002090601f016020900481019282601f10620003ac57805160ff1916838001178555620003dd565b82800160010185558215620003dd579182015b82811115620003dc578251825591602001919060010190620003bf565b5b509050620003ec9190620003f0565b5090565b6200041591905b8082111562000411576000816000905550600101620003f7565b5090565b90565b6200043d91905b80821115620004395760008160009055506001016200041f565b5090565b90565b600081519050620004518162000925565b92915050565b600082601f8301126200046957600080fd5b8151620004806200047a82620007fb565b620007cd565b91508181835260208401935060208101905083856020840282011115620004a657600080fd5b60005b83811015620004da5781620004bf888262000561565b845260208401935060208301925050600181019050620004a9565b5050505092915050565b600082601f830112620004f657600080fd5b81516200050d620005078262000824565b620007cd565b9150818183526020840193506020810190508360005b838110156200055757815186016200053c888262000578565b84526020840193506020830192505060018101905062000523565b5050505092915050565b60008151905062000572816200093f565b92915050565b600082601f8301126200058a57600080fd5b8151620005a16200059b826200084d565b620007cd565b91508082526020830160208301858383011115620005be57600080fd5b620005cb838284620008ef565b50505092915050565b600082601f830112620005e657600080fd5b8151620005fd620005f7826200087a565b620007cd565b915080825260208301602083018583830111156200061a57600080fd5b62000627838284620008ef565b50505092915050565b600081519050620006418162000959565b92915050565b6000806000806000806000806000806101408b8d0312156200066857600080fd5b60008b015167ffffffffffffffff8111156200068357600080fd5b620006918d828e01620005d4565b9a505060208b015167ffffffffffffffff811115620006af57600080fd5b620006bd8d828e01620004e4565b9950506040620006d08d828e0162000630565b98505060608b015167ffffffffffffffff811115620006ee57600080fd5b620006fc8d828e01620005d4565b97505060808b015167ffffffffffffffff8111156200071a57600080fd5b620007288d828e01620005d4565b96505060a06200073b8d828e0162000630565b95505060c08b015167ffffffffffffffff8111156200075957600080fd5b620007678d828e01620005d4565b94505060e08b015167ffffffffffffffff8111156200078557600080fd5b620007938d828e0162000457565b935050610100620007a78d828e0162000630565b925050610120620007bb8d828e0162000440565b9150509295989b9194979a5092959850565b6000604051905081810181811067ffffffffffffffff82111715620007f157600080fd5b8060405250919050565b600067ffffffffffffffff8211156200081357600080fd5b602082029050602081019050919050565b600067ffffffffffffffff8211156200083c57600080fd5b602082029050602081019050919050565b600067ffffffffffffffff8211156200086557600080fd5b601f19601f8301169050602081019050919050565b600067ffffffffffffffff8211156200089257600080fd5b601f19601f8301169050602081019050919050565b6000620008b482620008c5565b9050919050565b6000819050919050565b600073ffffffffffffffffffffffffffffffffffffffff82169050919050565b6000819050919050565b60005b838110156200090f578082015181840152602081019050620008f2565b838111156200091f576000848401525b50505050565b6200093081620008a7565b81146200093c57600080fd5b50565b6200094a81620008bb565b81146200095657600080fd5b50565b6200096481620008e5565b81146200097057600080fd5b50565b61191780620009836000396000f3fe608060405234801561001057600080fd5b50600436106101425760003560e01c80638e05bd08116100b8578063c00300321161007c578063c003003214610381578063d3d8b9a21461039f578063eaef0349146103bd578063eb87c6dc146103db578063f8bf89b5146103f9578063fa3d85461461042957610142565b80638e05bd08146102d95780639a53c45a146102f55780639eb8e72514610313578063a3ec138d14610331578063ae315fe41461036157610142565b80634885c72a1161010a5780634885c72a146101ed5780635c632b381461020b57806370651a181461023b5780638245d99e1461026d57806385e8e7a71461029d5780638c4f3820146102bb57610142565b8063202ed64314610147578063242b2826146101635780632f22850d1461019357806338cc4831146101b15780633a84e39d146101cf575b600080fd5b610161600480360361015c91908101906111fb565b610447565b005b61017d60048036036101789190810190611179565b610673565b60405161018a9190611532565b60405180910390f35b61019b61071b565b6040516101a89190611628565b60405180910390f35b6101b9610721565b6040516101c691906114f5565b60405180910390f35b6101d7610729565b6040516101e49190611568565b60405180910390f35b6101f561074f565b6040516102029190611583565b60405180910390f35b61022560048036036102209190810190611267565b6107ed565b6040516102329190611583565b60405180910390f35b61025560048036036102509190810190611267565b6108a6565b604051610264939291906115a5565b60405180910390f35b61028760048036036102829190810190611138565b610968565b6040516102949190611532565b60405180910390f35b6102a561099e565b6040516102b29190611583565b60405180910390f35b6102c3610a3c565b6040516102d09190611583565b60405180910390f35b6102f360048036036102ee91908101906111ba565b610ada565b005b6102fd610b40565b60405161030a9190611628565b60405180910390f35b61031b610b46565b6040516103289190611628565b60405180910390f35b61034b600480360361034691908101906110e6565b610b4c565b6040516103589190611532565b60405180910390f35b610369610b6c565b604051610378939291906115a5565b60405180910390f35b610389610c1c565b6040516103969190611628565b60405180910390f35b6103a7610c22565b6040516103b49190611583565b60405180910390f35b6103c5610cc0565b6040516103d29190611583565b60405180910390f35b6103e3610d5e565b6040516103f09190611510565b60405180910390f35b610413600480360361040e9190810190611267565b610e47565b604051610420919061154d565b60405180910390f35b610431610e68565b60405161043e9190611583565b60405180910390f35b600b54600a5442031061045957600080fd5b6000803373ffffffffffffffffffffffffffffffffffffffff1673ffffffffffffffffffffffffffffffffffffffff16815260200190815260200160002060009054906101000a900460ff16156104af57600080fd5b6002816040516104bf91906114de565b908152602001604051809103902060009054906101000a900460ff16156104e557600080fd5b600115156104f282610673565b1515146104fe57600080fd5b600782908060018154018082558091505090600182039060005260206000200160009091929091909150908051906020019061053b929190610f06565b505060096000815480929190600101919050555060016000803373ffffffffffffffffffffffffffffffffffffffff1673ffffffffffffffffffffffffffffffffffffffff16815260200190815260200160002060006101000a81548160ff02191690831515021790555060016002826040516105b891906114de565b908152602001604051809103902060006101000a81548160ff021916908315150217905550601560009054906101000a900473ffffffffffffffffffffffffffffffffffffffff1673ffffffffffffffffffffffffffffffffffffffff16636fce13c0600333856040518463ffffffff1660e01b815260040161063d939291906115e3565b600060405180830381600087803b15801561065757600080fd5b505af115801561066b573d6000803e3d6000fd5b505050505050565b60008060028360405161068691906114de565b602060405180830381855afa1580156106a3573d6000803e3d6000fd5b5050506040513d601f19601f820116820180604052506106c6919081019061110f565b905060008090505b60135481101561070f57601281815481106106e557fe5b906000526020600020015482141561070257600192505050610716565b80806001019150506106ce565b5060009150505b919050565b600f5481565b600030905090565b601560009054906101000a900473ffffffffffffffffffffffffffffffffffffffff1681565b60058054600181600116156101000203166002900480601f0160208091040260200160405190810160405280929190818152602001828054600181600116156101000203166002900480156107e55780601f106107ba576101008083540402835291602001916107e5565b820191906000526020600020905b8154815290600101906020018083116107c857829003601f168201915b505050505081565b600781815481106107fa57fe5b906000526020600020016000915090508054600181600116156101000203166002900480601f01602080910402602001604051908101604052809291908181526020018280546001816001161561010002031660029004801561089e5780601f106108735761010080835404028352916020019161089e565b820191906000526020600020905b81548152906001019060200180831161088157829003601f168201915b505050505081565b6001602052806000526040600020600091509050806000018054600181600116156101000203166002900480601f0160208091040260200160405190810160405280929190818152602001828054600181600116156101000203166002900480156109525780601f1061092757610100808354040283529160200191610952565b820191906000526020600020905b81548152906001019060200180831161093557829003601f168201915b5050505050908060010154908060020154905083565b6002818051602081018201805184825260208301602085012081835280955050505050506000915054906101000a900460ff1681565b60038054600181600116156101000203166002900480601f016020809104026020016040519081016040528092919081815260200182805460018160011615610100020316600290048015610a345780601f10610a0957610100808354040283529160200191610a34565b820191906000526020600020905b815481529060010190602001808311610a1757829003601f168201915b505050505081565b60118054600181600116156101000203166002900480601f016020809104026020016040519081016040528092919081815260200182805460018160011615610100020316600290048015610ad25780601f10610aa757610100808354040283529160200191610ad2565b820191906000526020600020905b815481529060010190602001808311610ab557829003601f168201915b505050505081565b8060119080519060200190610af0929190610f06565b506040518060400160405280600881526020017f636f6d706c65746500000000000000000000000000000000000000000000000081525060069080519060200190610b3c929190610f06565b5050565b60145481565b60085481565b60006020528060005260406000206000915054906101000a900460ff1681565b600c806000018054600181600116156101000203166002900480601f016020809104026020016040519081016040528092919081815260200182805460018160011615610100020316600290048015610c065780601f10610bdb57610100808354040283529160200191610c06565b820191906000526020600020905b815481529060010190602001808311610be957829003601f168201915b5050505050908060010154908060020154905083565b60095481565b60048054600181600116156101000203166002900480601f016020809104026020016040519081016040528092919081815260200182805460018160011615610100020316600290048015610cb85780601f10610c8d57610100808354040283529160200191610cb8565b820191906000526020600020905b815481529060010190602001808311610c9b57829003601f168201915b505050505081565b60068054600181600116156101000203166002900480601f016020809104026020016040519081016040528092919081815260200182805460018160011615610100020316600290048015610d565780601f10610d2b57610100808354040283529160200191610d56565b820191906000526020600020905b815481529060010190602001808311610d3957829003601f168201915b505050505081565b60606007805480602002602001604051908101604052809291908181526020016000905b82821015610e3e578382906000526020600020018054600181600116156101000203166002900480601f016020809104026020016040519081016040528092919081815260200182805460018160011615610100020316600290048015610e2a5780601f10610dff57610100808354040283529160200191610e2a565b820191906000526020600020905b815481529060010190602001808311610e0d57829003601f168201915b505050505081526020019060010190610d82565b50505050905090565b60128181548110610e5457fe5b906000526020600020016000915090505481565b60108054600181600116156101000203166002900480601f016020809104026020016040519081016040528092919081815260200182805460018160011615610100020316600290048015610efe5780601f10610ed357610100808354040283529160200191610efe565b820191906000526020600020905b815481529060010190602001808311610ee157829003601f168201915b505050505081565b828054600181600116156101000203166002900490600052602060002090601f016020900481019282601f10610f4757805160ff1916838001178555610f75565b82800160010185558215610f75579182015b82811115610f74578251825591602001919060010190610f59565b5b509050610f829190610f86565b5090565b610fa891905b80821115610fa4576000816000905550600101610f8c565b5090565b90565b600081359050610fba8161188f565b92915050565b600081519050610fcf816118a6565b92915050565b600082601f830112610fe657600080fd5b8135610ff9610ff482611670565b611643565b9150808252602083016020830185838301111561101557600080fd5b61102083828461183c565b50505092915050565b600082601f83011261103a57600080fd5b813561104d6110488261169c565b611643565b9150808252602083016020830185838301111561106957600080fd5b61107483828461183c565b50505092915050565b600082601f83011261108e57600080fd5b81356110a161109c826116c8565b611643565b915080825260208301602083018583830111156110bd57600080fd5b6110c883828461183c565b50505092915050565b6000813590506110e0816118bd565b92915050565b6000602082840312156110f857600080fd5b600061110684828501610fab565b91505092915050565b60006020828403121561112157600080fd5b600061112f84828501610fc0565b91505092915050565b60006020828403121561114a57600080fd5b600082013567ffffffffffffffff81111561116457600080fd5b61117084828501610fd5565b91505092915050565b60006020828403121561118b57600080fd5b600082013567ffffffffffffffff8111156111a557600080fd5b6111b184828501611029565b91505092915050565b6000602082840312156111cc57600080fd5b600082013567ffffffffffffffff8111156111e657600080fd5b6111f28482850161107d565b91505092915050565b6000806040838503121561120e57600080fd5b600083013567ffffffffffffffff81111561122857600080fd5b6112348582860161107d565b925050602083013567ffffffffffffffff81111561125157600080fd5b61125d85828601611029565b9150509250929050565b60006020828403121561127957600080fd5b6000611287848285016110d1565b91505092915050565b600061129c83836113ce565b905092915050565b6112ad816117e2565b82525050565b6112bc81611790565b82525050565b60006112cd82611719565b6112d78185611752565b9350836020820285016112e9856116f4565b8060005b8581101561132557848403895281516113068582611290565b945061131183611745565b925060208a019950506001810190506112ed565b50829750879550505050505092915050565b611340816117a2565b82525050565b61134f816117ae565b82525050565b600061136082611724565b61136a8185611763565b935061137a81856020860161184b565b80840191505092915050565b61138f816117f4565b82525050565b60006113a08261173a565b6113aa818561177f565b93506113ba81856020860161184b565b6113c38161187e565b840191505092915050565b60006113d98261172f565b6113e3818561176e565b93506113f381856020860161184b565b6113fc8161187e565b840191505092915050565b60006114128261172f565b61141c818561177f565b935061142c81856020860161184b565b6114358161187e565b840191505092915050565b60008154600181166000811461145d5760018114611483576114c7565b607f600283041661146e818761177f565b955060ff1983168652602086019350506114c7565b60028204611491818761177f565b955061149c85611704565b60005b828110156114be5781548189015260018201915060208101905061149f565b80880195505050505b505092915050565b6114d8816117d8565b82525050565b60006114ea8284611355565b915081905092915050565b600060208201905061150a60008301846112b3565b92915050565b6000602082019050818103600083015261152a81846112c2565b905092915050565b60006020820190506115476000830184611337565b92915050565b60006020820190506115626000830184611346565b92915050565b600060208201905061157d6000830184611386565b92915050565b6000602082019050818103600083015261159d8184611407565b905092915050565b600060608201905081810360008301526115bf8186611407565b90506115ce60208301856114cf565b6115db60408301846114cf565b949350505050565b600060608201905081810360008301526115fd8186611440565b905061160c60208301856112a4565b818103604083015261161e8184611395565b9050949350505050565b600060208201905061163d60008301846114cf565b92915050565b6000604051905081810181811067ffffffffffffffff8211171561166657600080fd5b8060405250919050565b600067ffffffffffffffff82111561168757600080fd5b601f19601f8301169050602081019050919050565b600067ffffffffffffffff8211156116b357600080fd5b601f19601f8301169050602081019050919050565b600067ffffffffffffffff8211156116df57600080fd5b601f19601f8301169050602081019050919050565b6000819050602082019050919050565b60008190508160005260206000209050919050565b600081519050919050565b600081519050919050565b600081519050919050565b600081519050919050565b6000602082019050919050565b600082825260208201905092915050565b600081905092915050565b600082825260208201905092915050565b600082825260208201905092915050565b600061179b826117b8565b9050919050565b60008115159050919050565b6000819050919050565b600073ffffffffffffffffffffffffffffffffffffffff82169050919050565b6000819050919050565b60006117ed82611818565b9050919050565b60006117ff82611806565b9050919050565b6000611811826117b8565b9050919050565b60006118238261182a565b9050919050565b6000611835826117b8565b9050919050565b82818337600083830152505050565b60005b8381101561186957808201518184015260208101905061184e565b83811115611878576000848401525b50505050565b6000601f19601f8301169050919050565b61189881611790565b81146118a357600080fd5b50565b6118af816117ae565b81146118ba57600080fd5b50565b6118c6816117d8565b81146118d157600080fd5b5056fea365627a7a72315820260b8a942bf0bdd5b55bec9863f04e61aa5ffde26685be1b1a6af9d450d144786c6578706572696d656e74616cf564736f6c63430005100040",
  "source": "// SPDX-License-Identifier: MIT\r\npragma solidity >=0.4.22 <0.8.0;\r\npragma experimental ABIEncoderV2;\r\n\r\nimport \"./ElectionBuilder.sol\";\r\n\r\ncontract Election {\r\n\r\n  struct Party {\r\n      string name;\r\n      uint id;\r\n      uint votes;\r\n  }\r\n\r\n  //solidity provides getter and setter functions for all mappings/varriables\r\n  mapping(address => bool) public voters;\r\n  mapping(uint => Party) public parties;\r\n  mapping(bytes => bool) public spentVoterIds;\r\n\r\n  string public electionName;\r\n  string public electionDeadline;\r\n  string public electionType;\r\n  string public electionStatus;\r\n\r\n  string[] public ballots;\r\n  uint public partyCount = 0;\r\n  uint public ballotCount = 0;\r\n  uint startTime = block.timestamp;\r\n  uint allowedTime = 30;\r\n  \r\n  Party public winningParty;\r\n  uint public winnerVoteCount = 0;\r\n\r\n  string public electionKey;\r\n  string public resultKey = \"noKey\";\r\n\r\n  bytes32[] public hashedVoterIds;\r\n  uint validVoterCount;\r\n\r\n  uint public stvSeatCount;\r\n  ElectionBuilder public electionBuilder;\r\n\r\n  constructor(string memory _electionName, string[] memory partyNames, uint _time, string memory timeStr, string memory _electionType, uint _stvSeatCount, string memory _electionKey, bytes32[] memory _hashedVoterIds, uint _validVoterCount, address _electionBuilder) public {\r\n    electionName = _electionName;\r\n    allowedTime = _time;\r\n    electionDeadline = timeStr;\r\n    electionType = _electionType;\r\n    electionKey = _electionKey;\r\n    hashedVoterIds = _hashedVoterIds;\r\n    validVoterCount = _validVoterCount;\r\n    stvSeatCount = _stvSeatCount;\r\n    electionBuilder = ElectionBuilder(_electionBuilder);\r\n    electionStatus = \"inProgress\";\r\n    for (uint i = 0; i < partyNames.length; i++) {\r\n        addParty(partyNames[i]);\r\n    }\r\n  }\r\n\r\n  function getAddress () public view returns (address) {\r\n    return address(this);\r\n  }\r\n\r\n  function getBallots() public view returns (string[] memory) {\r\n    return ballots;\r\n  }\r\n\r\n  function releaseResultKey (string memory _resultKey) public {\r\n    //   require(block.timestamp - startTime > allowedTime);\r\n      resultKey = _resultKey;\r\n      electionStatus = \"complete\";\r\n  }\r\n\r\n  function addParty (string memory _name) private {\r\n      parties[partyCount] = Party(_name, partyCount, 0);\r\n      partyCount ++;\r\n  }\r\n\r\n  function validateUser (bytes memory _voterId) public view returns (bool) {\r\n    bytes32 hashedVoterId = sha256(_voterId);\r\n    for (uint i = 0; i < validVoterCount; i++) {\r\n        if (hashedVoterId == hashedVoterIds[i]) {\r\n            return true;\r\n        }\r\n    }\r\n    return false;\r\n  }\r\n\r\n  function castVote (string memory _vote, bytes memory _voterId) public {\r\n      require(block.timestamp - startTime < allowedTime);\r\n      require(!voters[msg.sender]);\r\n      require(!spentVoterIds[_voterId]);\r\n      require(validateUser(_voterId) == true);\r\n      ballots.push(_vote);\r\n      ballotCount++;\r\n      voters[msg.sender] = true;\r\n      spentVoterIds[_voterId] = true;\r\n      electionBuilder.addUserBallot(electionName, msg.sender, _vote);\r\n  }\r\n}",
  "sourcePath": "C:\\Users\\boofi\\Desktop\\Current\\2021-ca400-kiragab2-macgabr2\\src\\Ethocracy\\contracts\\Election.sol",
  "compiler": {
    "name": "solc",
    "version": "0.5.16+commit.9c3226ce.Emscripten.clang"
  },
  "schemaVersion": "3.3.3",
  "updatedAt": "2021-05-04T16:04:38.494Z",
  "devdoc": {
    "methods": {}
  },
  "userdoc": {
    "methods": {}
  }
}