{
  "contractName": "Election",
  "abi": [
    {
      "inputs": [
        {
          "internalType": "string",
          "name": "_electionName",
          "type": "string"
        },
        {
          "internalType": "string[]",
          "name": "partyNames",
          "type": "string[]"
        },
        {
          "internalType": "uint256",
          "name": "_time",
          "type": "uint256"
        },
        {
          "internalType": "string",
          "name": "timeStr",
          "type": "string"
        },
        {
          "internalType": "string",
          "name": "_electionType",
          "type": "string"
        },
        {
          "internalType": "string",
          "name": "_electionKey",
          "type": "string"
        },
        {
          "internalType": "bytes32[]",
          "name": "_hashedVoterIds",
          "type": "bytes32[]"
        },
        {
          "internalType": "uint256",
          "name": "_validVoterCount",
          "type": "uint256"
        }
      ],
      "payable": false,
      "stateMutability": "nonpayable",
      "type": "constructor"
    },
    {
      "constant": true,
      "inputs": [],
      "name": "ballotCount",
      "outputs": [
        {
          "internalType": "uint256",
          "name": "",
          "type": "uint256"
        }
      ],
      "payable": false,
      "stateMutability": "view",
      "type": "function"
    },
    {
      "constant": true,
      "inputs": [
        {
          "internalType": "uint256",
          "name": "",
          "type": "uint256"
        }
      ],
      "name": "ballots",
      "outputs": [
        {
          "internalType": "string",
          "name": "",
          "type": "string"
        }
      ],
      "payable": false,
      "stateMutability": "view",
      "type": "function"
    },
    {
      "constant": true,
      "inputs": [],
      "name": "electionDeadline",
      "outputs": [
        {
          "internalType": "string",
          "name": "",
          "type": "string"
        }
      ],
      "payable": false,
      "stateMutability": "view",
      "type": "function"
    },
    {
      "constant": true,
      "inputs": [],
      "name": "electionKey",
      "outputs": [
        {
          "internalType": "string",
          "name": "",
          "type": "string"
        }
      ],
      "payable": false,
      "stateMutability": "view",
      "type": "function"
    },
    {
      "constant": true,
      "inputs": [],
      "name": "electionName",
      "outputs": [
        {
          "internalType": "string",
          "name": "",
          "type": "string"
        }
      ],
      "payable": false,
      "stateMutability": "view",
      "type": "function"
    },
    {
      "constant": true,
      "inputs": [],
      "name": "electionStatus",
      "outputs": [
        {
          "internalType": "string",
          "name": "",
          "type": "string"
        }
      ],
      "payable": false,
      "stateMutability": "view",
      "type": "function"
    },
    {
      "constant": true,
      "inputs": [],
      "name": "electionType",
      "outputs": [
        {
          "internalType": "string",
          "name": "",
          "type": "string"
        }
      ],
      "payable": false,
      "stateMutability": "view",
      "type": "function"
    },
    {
      "constant": true,
      "inputs": [
        {
          "internalType": "uint256",
          "name": "",
          "type": "uint256"
        }
      ],
      "name": "hashedVoterIds",
      "outputs": [
        {
          "internalType": "bytes32",
          "name": "",
          "type": "bytes32"
        }
      ],
      "payable": false,
      "stateMutability": "view",
      "type": "function"
    },
    {
      "constant": true,
      "inputs": [
        {
          "internalType": "uint256",
          "name": "",
          "type": "uint256"
        }
      ],
      "name": "parties",
      "outputs": [
        {
          "internalType": "string",
          "name": "name",
          "type": "string"
        },
        {
          "internalType": "uint256",
          "name": "id",
          "type": "uint256"
        },
        {
          "internalType": "uint256",
          "name": "votes",
          "type": "uint256"
        }
      ],
      "payable": false,
      "stateMutability": "view",
      "type": "function"
    },
    {
      "constant": true,
      "inputs": [],
      "name": "partyCount",
      "outputs": [
        {
          "internalType": "uint256",
          "name": "",
          "type": "uint256"
        }
      ],
      "payable": false,
      "stateMutability": "view",
      "type": "function"
    },
    {
      "constant": true,
      "inputs": [],
      "name": "resultKey",
      "outputs": [
        {
          "internalType": "string",
          "name": "",
          "type": "string"
        }
      ],
      "payable": false,
      "stateMutability": "view",
      "type": "function"
    },
    {
      "constant": true,
      "inputs": [
        {
          "internalType": "bytes",
          "name": "",
          "type": "bytes"
        }
      ],
      "name": "spentVoterIds",
      "outputs": [
        {
          "internalType": "bool",
          "name": "",
          "type": "bool"
        }
      ],
      "payable": false,
      "stateMutability": "view",
      "type": "function"
    },
    {
      "constant": true,
      "inputs": [
        {
          "internalType": "address",
          "name": "",
          "type": "address"
        }
      ],
      "name": "voters",
      "outputs": [
        {
          "internalType": "bool",
          "name": "",
          "type": "bool"
        }
      ],
      "payable": false,
      "stateMutability": "view",
      "type": "function"
    },
    {
      "constant": true,
      "inputs": [],
      "name": "winnerVoteCount",
      "outputs": [
        {
          "internalType": "uint256",
          "name": "",
          "type": "uint256"
        }
      ],
      "payable": false,
      "stateMutability": "view",
      "type": "function"
    },
    {
      "constant": true,
      "inputs": [],
      "name": "winningParty",
      "outputs": [
        {
          "internalType": "string",
          "name": "name",
          "type": "string"
        },
        {
          "internalType": "uint256",
          "name": "id",
          "type": "uint256"
        },
        {
          "internalType": "uint256",
          "name": "votes",
          "type": "uint256"
        }
      ],
      "payable": false,
      "stateMutability": "view",
      "type": "function"
    },
    {
      "constant": true,
      "inputs": [],
      "name": "getAddress",
      "outputs": [
        {
          "internalType": "address",
          "name": "",
          "type": "address"
        }
      ],
      "payable": false,
      "stateMutability": "view",
      "type": "function"
    },
    {
      "constant": false,
      "inputs": [
        {
          "internalType": "string",
          "name": "_resultKey",
          "type": "string"
        }
      ],
      "name": "releaseResultKey",
      "outputs": [],
      "payable": false,
      "stateMutability": "nonpayable",
      "type": "function"
    },
    {
      "constant": true,
      "inputs": [
        {
          "internalType": "bytes",
          "name": "_voterId",
          "type": "bytes"
        }
      ],
      "name": "validateUser",
      "outputs": [
        {
          "internalType": "bool",
          "name": "",
          "type": "bool"
        }
      ],
      "payable": false,
      "stateMutability": "view",
      "type": "function"
    },
    {
      "constant": false,
      "inputs": [
        {
          "internalType": "string",
          "name": "_vote",
          "type": "string"
        },
        {
          "internalType": "bytes",
          "name": "_voterId",
          "type": "bytes"
        }
      ],
      "name": "castVote",
      "outputs": [],
      "payable": false,
      "stateMutability": "nonpayable",
      "type": "function"
    }
  ],
  "bytecode": "0x60806040526000600855600060095542600a55601e600b556000600f556040518060400160405280600581526020017f6e6f4b6579000000000000000000000000000000000000000000000000000000815250601190805190602001906200006992919062000246565b503480156200007757600080fd5b5060405162001cae38038062001cae83398181016040526200009d9190810190620005e6565b8760039080519060200190620000b592919062000246565b5085600b819055508460049080519060200190620000d592919062000246565b508360059080519060200190620000ee92919062000246565b5082601090805190602001906200010792919062000246565b50816012908051906020019062000120929190620002cd565b50806013819055506040518060400160405280600a81526020017f696e50726f677265737300000000000000000000000000000000000000000000815250600690805190602001906200017592919062000246565b5060008090505b8751811015620001b957620001ab8882815181106200019757fe5b6020026020010151620001c860201b60201c565b80806001019150506200017c565b50505050505050505062000897565b6040518060600160405280828152602001600854815260200160008152506001600060085481526020019081526020016000206000820151816000019080519060200190620002199291906200031f565b50602082015181600101556040820151816002015590505060086000815480929190600101919050555050565b828054600181600116156101000203166002900490600052602060002090601f016020900481019282601f106200028957805160ff1916838001178555620002ba565b82800160010185558215620002ba579182015b82811115620002b95782518255916020019190600101906200029c565b5b509050620002c99190620003a6565b5090565b8280548282559060005260206000209081019282156200030c579160200282015b828111156200030b578251825591602001919060010190620002ee565b5b5090506200031b9190620003ce565b5090565b828054600181600116156101000203166002900490600052602060002090601f016020900481019282601f106200036257805160ff191683800117855562000393565b8280016001018555821562000393579182015b828111156200039257825182559160200191906001019062000375565b5b509050620003a29190620003a6565b5090565b620003cb91905b80821115620003c7576000816000905550600101620003ad565b5090565b90565b620003f391905b80821115620003ef576000816000905550600101620003d5565b5090565b90565b600082601f8301126200040857600080fd5b81516200041f62000419826200076d565b6200073f565b915081818352602084019350602081019050838560208402820111156200044557600080fd5b60005b838110156200047957816200045e888262000500565b84526020840193506020830192505060018101905062000448565b5050505092915050565b600082601f8301126200049557600080fd5b8151620004ac620004a68262000796565b6200073f565b9150818183526020840193506020810190508360005b83811015620004f65781518601620004db888262000517565b845260208401935060208301925050600181019050620004c2565b5050505092915050565b600081519050620005118162000863565b92915050565b600082601f8301126200052957600080fd5b8151620005406200053a82620007bf565b6200073f565b915080825260208301602083018583830111156200055d57600080fd5b6200056a8382846200082d565b50505092915050565b600082601f8301126200058557600080fd5b81516200059c6200059682620007ec565b6200073f565b91508082526020830160208301858383011115620005b957600080fd5b620005c68382846200082d565b50505092915050565b600081519050620005e0816200087d565b92915050565b600080600080600080600080610100898b0312156200060457600080fd5b600089015167ffffffffffffffff8111156200061f57600080fd5b6200062d8b828c0162000573565b985050602089015167ffffffffffffffff8111156200064b57600080fd5b620006598b828c0162000483565b97505060406200066c8b828c01620005cf565b965050606089015167ffffffffffffffff8111156200068a57600080fd5b620006988b828c0162000573565b955050608089015167ffffffffffffffff811115620006b657600080fd5b620006c48b828c0162000573565b94505060a089015167ffffffffffffffff811115620006e257600080fd5b620006f08b828c0162000573565b93505060c089015167ffffffffffffffff8111156200070e57600080fd5b6200071c8b828c01620003f6565b92505060e06200072f8b828c01620005cf565b9150509295985092959890939650565b6000604051905081810181811067ffffffffffffffff821117156200076357600080fd5b8060405250919050565b600067ffffffffffffffff8211156200078557600080fd5b602082029050602081019050919050565b600067ffffffffffffffff821115620007ae57600080fd5b602082029050602081019050919050565b600067ffffffffffffffff821115620007d757600080fd5b601f19601f8301169050602081019050919050565b600067ffffffffffffffff8211156200080457600080fd5b601f19601f8301169050602081019050919050565b6000819050919050565b6000819050919050565b60005b838110156200084d57808201518184015260208101905062000830565b838111156200085d576000848401525b50505050565b6200086e8162000819565b81146200087a57600080fd5b50565b620008888162000823565b81146200089457600080fd5b50565b61140780620008a76000396000f3fe608060405234801561001057600080fd5b50600436106101215760003560e01c80638c4f3820116100ad578063c003003211610071578063c003003214610324578063d3d8b9a214610342578063eaef034914610360578063f8bf89b51461037e578063fa3d8546146103ae57610121565b80638c4f38201461027c5780638e05bd081461029a5780639eb8e725146102b6578063a3ec138d146102d4578063ae315fe41461030457610121565b80634885c72a116100f45780634885c72a146101ae5780635c632b38146101cc57806370651a18146101fc5780638245d99e1461022e57806385e8e7a71461025e57610121565b8063202ed64314610126578063242b2826146101425780632f22850d1461017257806338cc483114610190575b600080fd5b610140600480360361013b9190810190610fd9565b6103cc565b005b61015c60048036036101579190810190610f57565b610566565b6040516101699190611146565b60405180910390f35b61017a61060e565b60405161018791906111dc565b60405180910390f35b610198610614565b6040516101a5919061112b565b60405180910390f35b6101b661061c565b6040516101c3919061117c565b60405180910390f35b6101e660048036036101e19190810190611045565b6106ba565b6040516101f3919061117c565b60405180910390f35b61021660048036036102119190810190611045565b610773565b6040516102259392919061119e565b60405180910390f35b61024860048036036102439190810190610f16565b610835565b6040516102559190611146565b60405180910390f35b61026661086b565b604051610273919061117c565b60405180910390f35b610284610909565b604051610291919061117c565b60405180910390f35b6102b460048036036102af9190810190610f98565b6109a7565b005b6102be610a0d565b6040516102cb91906111dc565b60405180910390f35b6102ee60048036036102e99190810190610ec4565b610a13565b6040516102fb9190611146565b60405180910390f35b61030c610a33565b60405161031b9392919061119e565b60405180910390f35b61032c610ae3565b60405161033991906111dc565b60405180910390f35b61034a610ae9565b604051610357919061117c565b60405180910390f35b610368610b87565b604051610375919061117c565b60405180910390f35b61039860048036036103939190810190611045565b610c25565b6040516103a59190611161565b60405180910390f35b6103b6610c46565b6040516103c3919061117c565b60405180910390f35b600b54600a544203106103de57600080fd5b6000803373ffffffffffffffffffffffffffffffffffffffff1673ffffffffffffffffffffffffffffffffffffffff16815260200190815260200160002060009054906101000a900460ff161561043457600080fd5b6002816040516104449190611114565b908152602001604051809103902060009054906101000a900460ff161561046a57600080fd5b6001151561047782610566565b15151461048357600080fd5b60078290806001815401808255809150509060018203906000526020600020016000909192909190915090805190602001906104c0929190610ce4565b505060096000815480929190600101919050555060016000803373ffffffffffffffffffffffffffffffffffffffff1673ffffffffffffffffffffffffffffffffffffffff16815260200190815260200160002060006101000a81548160ff021916908315150217905550600160028260405161053d9190611114565b908152602001604051809103902060006101000a81548160ff0219169083151502179055505050565b6000806002836040516105799190611114565b602060405180830381855afa158015610596573d6000803e3d6000fd5b5050506040513d601f19601f820116820180604052506105b99190810190610eed565b905060008090505b60135481101561060257601281815481106105d857fe5b90600052602060002001548214156105f557600192505050610609565b80806001019150506105c1565b5060009150505b919050565b600f5481565b600030905090565b60058054600181600116156101000203166002900480601f0160208091040260200160405190810160405280929190818152602001828054600181600116156101000203166002900480156106b25780601f10610687576101008083540402835291602001916106b2565b820191906000526020600020905b81548152906001019060200180831161069557829003601f168201915b505050505081565b600781815481106106c757fe5b906000526020600020016000915090508054600181600116156101000203166002900480601f01602080910402602001604051908101604052809291908181526020018280546001816001161561010002031660029004801561076b5780601f106107405761010080835404028352916020019161076b565b820191906000526020600020905b81548152906001019060200180831161074e57829003601f168201915b505050505081565b6001602052806000526040600020600091509050806000018054600181600116156101000203166002900480601f01602080910402602001604051908101604052809291908181526020018280546001816001161561010002031660029004801561081f5780601f106107f45761010080835404028352916020019161081f565b820191906000526020600020905b81548152906001019060200180831161080257829003601f168201915b5050505050908060010154908060020154905083565b6002818051602081018201805184825260208301602085012081835280955050505050506000915054906101000a900460ff1681565b60038054600181600116156101000203166002900480601f0160208091040260200160405190810160405280929190818152602001828054600181600116156101000203166002900480156109015780601f106108d657610100808354040283529160200191610901565b820191906000526020600020905b8154815290600101906020018083116108e457829003601f168201915b505050505081565b60118054600181600116156101000203166002900480601f01602080910402602001604051908101604052809291908181526020018280546001816001161561010002031660029004801561099f5780601f106109745761010080835404028352916020019161099f565b820191906000526020600020905b81548152906001019060200180831161098257829003601f168201915b505050505081565b80601190805190602001906109bd929190610ce4565b506040518060400160405280600881526020017f636f6d706c65746500000000000000000000000000000000000000000000000081525060069080519060200190610a09929190610ce4565b5050565b60085481565b60006020528060005260406000206000915054906101000a900460ff1681565b600c806000018054600181600116156101000203166002900480601f016020809104026020016040519081016040528092919081815260200182805460018160011615610100020316600290048015610acd5780601f10610aa257610100808354040283529160200191610acd565b820191906000526020600020905b815481529060010190602001808311610ab057829003601f168201915b5050505050908060010154908060020154905083565b60095481565b60048054600181600116156101000203166002900480601f016020809104026020016040519081016040528092919081815260200182805460018160011615610100020316600290048015610b7f5780601f10610b5457610100808354040283529160200191610b7f565b820191906000526020600020905b815481529060010190602001808311610b6257829003601f168201915b505050505081565b60068054600181600116156101000203166002900480601f016020809104026020016040519081016040528092919081815260200182805460018160011615610100020316600290048015610c1d5780601f10610bf257610100808354040283529160200191610c1d565b820191906000526020600020905b815481529060010190602001808311610c0057829003601f168201915b505050505081565b60128181548110610c3257fe5b906000526020600020016000915090505481565b60108054600181600116156101000203166002900480601f016020809104026020016040519081016040528092919081815260200182805460018160011615610100020316600290048015610cdc5780601f10610cb157610100808354040283529160200191610cdc565b820191906000526020600020905b815481529060010190602001808311610cbf57829003601f168201915b505050505081565b828054600181600116156101000203166002900490600052602060002090601f016020900481019282601f10610d2557805160ff1916838001178555610d53565b82800160010185558215610d53579182015b82811115610d52578251825591602001919060010190610d37565b5b509050610d609190610d64565b5090565b610d8691905b80821115610d82576000816000905550600101610d6a565b5090565b90565b600081359050610d988161137f565b92915050565b600081519050610dad81611396565b92915050565b600082601f830112610dc457600080fd5b8135610dd7610dd282611224565b6111f7565b91508082526020830160208301858383011115610df357600080fd5b610dfe83828461132c565b50505092915050565b600082601f830112610e1857600080fd5b8135610e2b610e2682611250565b6111f7565b91508082526020830160208301858383011115610e4757600080fd5b610e5283828461132c565b50505092915050565b600082601f830112610e6c57600080fd5b8135610e7f610e7a8261127c565b6111f7565b91508082526020830160208301858383011115610e9b57600080fd5b610ea683828461132c565b50505092915050565b600081359050610ebe816113ad565b92915050565b600060208284031215610ed657600080fd5b6000610ee484828501610d89565b91505092915050565b600060208284031215610eff57600080fd5b6000610f0d84828501610d9e565b91505092915050565b600060208284031215610f2857600080fd5b600082013567ffffffffffffffff811115610f4257600080fd5b610f4e84828501610db3565b91505092915050565b600060208284031215610f6957600080fd5b600082013567ffffffffffffffff811115610f8357600080fd5b610f8f84828501610e07565b91505092915050565b600060208284031215610faa57600080fd5b600082013567ffffffffffffffff811115610fc457600080fd5b610fd084828501610e5b565b91505092915050565b60008060408385031215610fec57600080fd5b600083013567ffffffffffffffff81111561100657600080fd5b61101285828601610e5b565b925050602083013567ffffffffffffffff81111561102f57600080fd5b61103b85828601610e07565b9150509250929050565b60006020828403121561105757600080fd5b600061106584828501610eaf565b91505092915050565b611077816112da565b82525050565b611086816112ec565b82525050565b611095816112f8565b82525050565b60006110a6826112a8565b6110b081856112be565b93506110c081856020860161133b565b80840191505092915050565b60006110d7826112b3565b6110e181856112c9565b93506110f181856020860161133b565b6110fa8161136e565b840191505092915050565b61110e81611322565b82525050565b6000611120828461109b565b915081905092915050565b6000602082019050611140600083018461106e565b92915050565b600060208201905061115b600083018461107d565b92915050565b6000602082019050611176600083018461108c565b92915050565b6000602082019050818103600083015261119681846110cc565b905092915050565b600060608201905081810360008301526111b881866110cc565b90506111c76020830185611105565b6111d46040830184611105565b949350505050565b60006020820190506111f16000830184611105565b92915050565b6000604051905081810181811067ffffffffffffffff8211171561121a57600080fd5b8060405250919050565b600067ffffffffffffffff82111561123b57600080fd5b601f19601f8301169050602081019050919050565b600067ffffffffffffffff82111561126757600080fd5b601f19601f8301169050602081019050919050565b600067ffffffffffffffff82111561129357600080fd5b601f19601f8301169050602081019050919050565b600081519050919050565b600081519050919050565b600081905092915050565b600082825260208201905092915050565b60006112e582611302565b9050919050565b60008115159050919050565b6000819050919050565b600073ffffffffffffffffffffffffffffffffffffffff82169050919050565b6000819050919050565b82818337600083830152505050565b60005b8381101561135957808201518184015260208101905061133e565b83811115611368576000848401525b50505050565b6000601f19601f8301169050919050565b611388816112da565b811461139357600080fd5b50565b61139f816112f8565b81146113aa57600080fd5b50565b6113b681611322565b81146113c157600080fd5b5056fea365627a7a7231582049a4fc001276ea85a5210319f25e40a7c895725a0e77de9cf48a12cac7e7d8856c6578706572696d656e74616cf564736f6c63430005100040",
  "source": "// SPDX-License-Identifier: MIT\npragma solidity >=0.4.22 <0.8.0;\npragma experimental ABIEncoderV2;\n\ncontract Election {\n  struct Party {\n      string name;\n      uint id;\n      uint votes;\n  }\n\n  //solidity provides getter and setter functions for all mappings/varriables\n  mapping(address => bool) public voters;\n  mapping(uint => Party) public parties;\n  mapping(bytes => bool) public spentVoterIds;\n\n  string public electionName;\n  string public electionDeadline;\n  string public electionType;\n  string public electionStatus;\n\n  string[] public ballots;\n  uint public partyCount = 0;\n  uint public ballotCount = 0;\n  uint startTime = block.timestamp;\n  uint allowedTime = 30;\n  \n  Party public winningParty;\n  uint public winnerVoteCount = 0;\n\n  string public electionKey;\n  string public resultKey = \"noKey\";\n\n  bytes32[] public hashedVoterIds;\n  uint validVoterCount;\n\n  constructor(string memory _electionName, string[] memory partyNames, uint _time, string memory timeStr, string memory _electionType, string memory _electionKey, bytes32[] memory _hashedVoterIds, uint _validVoterCount) public {\n    electionName = _electionName;\n    allowedTime = _time;\n    electionDeadline = timeStr;\n    electionType = _electionType;\n    electionKey = _electionKey;\n    hashedVoterIds = _hashedVoterIds;\n    validVoterCount = _validVoterCount;\n    electionStatus = \"inProgress\";\n    for (uint i = 0; i < partyNames.length; i++) {\n        addParty(partyNames[i]);\n    }\n  }\n\n  function getAddress () public view returns (address) {\n      return address(this);\n  }\n\n  function releaseResultKey (string memory _resultKey) public {\n    //   require(block.timestamp - startTime > allowedTime);\n      resultKey = _resultKey;\n      electionStatus = \"complete\";\n  }\n\n  function addParty (string memory _name) private {\n      parties[partyCount] = Party(_name, partyCount, 0);\n      partyCount ++;\n  }\n\n  function validateUser (bytes memory _voterId) public view returns (bool) {\n    bytes32 hashedVoterId = sha256(_voterId);\n    for (uint i = 0; i < validVoterCount; i++) {\n        if (hashedVoterId == hashedVoterIds[i]) {\n            return true;\n        }\n    }\n    return false;\n  }\n\n  function castVote (string memory _vote, bytes memory _voterId) public {\n      require(block.timestamp - startTime < allowedTime);\n      require(!voters[msg.sender]);\n      require(!spentVoterIds[_voterId]);\n      require(validateUser(_voterId) == true);\n      ballots.push(_vote);\n      ballotCount++;\n      voters[msg.sender] = true;\n      spentVoterIds[_voterId] = true;\n  }\n}",
  "sourcePath": "/home/bart/ca400/2021-ca400-kiragab2-macgabr2/src/Ethocracy/contracts/Election.sol",
  "compiler": {
    "name": "solc",
    "version": "0.5.16+commit.9c3226ce.Emscripten.clang"
  },
  "schemaVersion": "3.3.2",
  "updatedAt": "2021-05-01T09:38:37.553Z",
  "devdoc": {
    "methods": {}
  },
  "userdoc": {
    "methods": {}
  }
}