{
  "contractName": "Voting",
  "abi": [
    {
      "inputs": [],
      "payable": false,
      "stateMutability": "nonpayable",
      "type": "constructor"
    },
    {
      "constant": true,
      "inputs": [
        {
          "internalType": "uint256",
          "name": "",
          "type": "uint256"
        }
      ],
      "name": "parties",
      "outputs": [
        {
          "internalType": "string",
          "name": "name",
          "type": "string"
        },
        {
          "internalType": "uint256",
          "name": "id",
          "type": "uint256"
        },
        {
          "internalType": "uint256",
          "name": "votes",
          "type": "uint256"
        }
      ],
      "payable": false,
      "stateMutability": "view",
      "type": "function"
    },
    {
      "constant": true,
      "inputs": [],
      "name": "partyCount",
      "outputs": [
        {
          "internalType": "uint256",
          "name": "",
          "type": "uint256"
        }
      ],
      "payable": false,
      "stateMutability": "view",
      "type": "function"
    },
    {
      "constant": true,
      "inputs": [
        {
          "internalType": "address",
          "name": "",
          "type": "address"
        }
      ],
      "name": "voters",
      "outputs": [
        {
          "internalType": "bool",
          "name": "",
          "type": "bool"
        }
      ],
      "payable": false,
      "stateMutability": "view",
      "type": "function"
    },
    {
      "constant": true,
      "inputs": [],
      "name": "winnerVoteCount",
      "outputs": [
        {
          "internalType": "uint256",
          "name": "",
          "type": "uint256"
        }
      ],
      "payable": false,
      "stateMutability": "view",
      "type": "function"
    },
    {
      "constant": true,
      "inputs": [],
      "name": "winningParty",
      "outputs": [
        {
          "internalType": "string",
          "name": "name",
          "type": "string"
        },
        {
          "internalType": "uint256",
          "name": "id",
          "type": "uint256"
        },
        {
          "internalType": "uint256",
          "name": "votes",
          "type": "uint256"
        }
      ],
      "payable": false,
      "stateMutability": "view",
      "type": "function"
    },
    {
      "constant": false,
      "inputs": [
        {
          "internalType": "uint256",
          "name": "_id",
          "type": "uint256"
        }
      ],
      "name": "castVote",
      "outputs": [],
      "payable": false,
      "stateMutability": "nonpayable",
      "type": "function"
    },
    {
      "constant": false,
      "inputs": [],
      "name": "countVotes",
      "outputs": [],
      "payable": false,
      "stateMutability": "nonpayable",
      "type": "function"
    }
  ],
  "bytecode": "0x6080604052600060025542600355600060075534801561001e57600080fd5b506100636040518060400160405280600a81526020017f46696e6e65204761656c0000000000000000000000000000000000000000000081525061013460201b60201c565b6100a76040518060400160405280600981526020017f53696e6e204665696e000000000000000000000000000000000000000000000081525061013460201b60201c565b6100eb6040518060400160405280600b81526020017f4669616e6e61204661696c00000000000000000000000000000000000000000081525061013460201b60201c565b61012f6040518060400160405280601081526020017f416e2053616d706c65205061697274690000000000000000000000000000000081525061013460201b60201c565b610255565b60405180606001604052808281526020016002548152602001600081525060016000600254815260200190815260200160002060008201518160000190805190602001906101839291906101b0565b50602082015181600101556040820151816002015590505060026000815480929190600101919050555050565b828054600181600116156101000203166002900490600052602060002090601f016020900481019282601f106101f157805160ff191683800117855561021f565b8280016001018555821561021f579182015b8281111561021e578251825591602001919060010190610203565b5b50905061022c9190610230565b5090565b61025291905b8082111561024e576000816000905550600101610236565b5090565b90565b6106bb806102646000396000f3fe608060405234801561001057600080fd5b506004361061007d5760003560e01c80639eb8e7251161005b5780639eb8e72514610183578063a3ec138d146101a1578063ae315fe4146101fd578063b647990a1461028e5761007d565b80632f22850d146100825780633eb76b9c146100a057806370651a18146100ce575b600080fd5b61008a610298565b6040518082815260200191505060405180910390f35b6100cc600480360360208110156100b657600080fd5b810190808035906020019092919050505061029e565b005b6100fa600480360360208110156100e457600080fd5b8101908080359060200190929190505050610390565b6040518080602001848152602001838152602001828103825285818151815260200191508051906020019080838360005b8381101561014657808201518184015260208101905061012b565b50505050905090810190601f1680156101735780820380516001836020036101000a031916815260200191505b5094505050505060405180910390f35b61018b610452565b6040518082815260200191505060405180910390f35b6101e3600480360360208110156101b757600080fd5b81019080803573ffffffffffffffffffffffffffffffffffffffff169060200190929190505050610458565b604051808215151515815260200191505060405180910390f35b610205610478565b6040518080602001848152602001838152602001828103825285818151815260200191508051906020019080838360005b83811015610251578082015181840152602081019050610236565b50505050905090810190601f16801561027e5780820380516001836020036101000a031916815260200191505b5094505050505060405180910390f35b610296610528565b005b60075481565b6000803373ffffffffffffffffffffffffffffffffffffffff1673ffffffffffffffffffffffffffffffffffffffff16815260200190815260200160002060009054906101000a900460ff16156102f457600080fd5b6000811015801561030757506002548111155b61031057600080fd5b600160008281526020019081526020016000206002016000815480929190600101919050555060016000803373ffffffffffffffffffffffffffffffffffffffff1673ffffffffffffffffffffffffffffffffffffffff16815260200190815260200160002060006101000a81548160ff02191690831515021790555050565b6001602052806000526040600020600091509050806000018054600181600116156101000203166002900480601f01602080910402602001604051908101604052809291908181526020018280546001816001161561010002031660029004801561043c5780601f106104115761010080835404028352916020019161043c565b820191906000526020600020905b81548152906001019060200180831161041f57829003601f168201915b5050505050908060010154908060020154905083565b60025481565b60006020528060005260406000206000915054906101000a900460ff1681565b6004806000018054600181600116156101000203166002900480601f0160208091040260200160405190810160405280929190818152602001828054600181600116156101000203166002900480156105125780601f106104e757610100808354040283529160200191610512565b820191906000526020600020905b8154815290600101906020018083116104f557829003601f168201915b5050505050908060010154908060020154905083565b60008090505b6002548110156105d757600754600160008381526020019081526020016000206002015411156105ca57600160008281526020019081526020016000206004600082018160000190805460018160011615610100020316600290046105949291906105da565b50600182015481600101556002820154816002015590505060016000828152602001908152602001600020600201546007819055505b808060010191505061052e565b50565b828054600181600116156101000203166002900490600052602060002090601f016020900481019282601f106106135780548555610650565b8280016001018555821561065057600052602060002091601f016020900482015b8281111561064f578254825591600101919060010190610634565b5b50905061065d9190610661565b5090565b61068391905b8082111561067f576000816000905550600101610667565b5090565b9056fea265627a7a723158206fda8fca919f4e3f242c6e0516ee9c0c0942a8d4419f2fd7730cb52b6764b6b664736f6c63430005100032",
  "source": "// SPDX-License-Identifier: MIT\npragma solidity >=0.4.22 <0.8.0;\n\ncontract Voting {\n  // Party structure\n  struct Party {\n      string name;\n      uint id;\n      uint votes;\n  }\n\n  // Contract variables\n  mapping(address => bool) public voters;\n  mapping(uint => Party) public parties;\n  uint public partyCount = 0;\n  \n  uint startTime = block.timestamp;\n//   uint allowedTime = 30;\n  \n  Party public winningParty;\n  uint public winnerVoteCount = 0;\n\n  // Hard coded candidates built during contract instanciation, to be replaced with a read from file.\n  constructor() public {\n      addParty(\"Finne Gael\");\n      addParty(\"Sinn Fein\");\n      addParty(\"Fianna Fail\");\n      addParty(\"An Sample Pairti\");\n  }\n\n  // Private temporary function to hard code candidates\n  function addParty (string memory _name) private {\n      parties[partyCount] = Party(_name, partyCount, 0);\n      partyCount ++;\n  }\n\n  function castVote (uint _id) public {\n    //   require(block.timestamp - startTime < allowedTime);\n      require(!voters[msg.sender]);\n      require(_id >= 0 && _id <= partyCount);\n      parties[_id].votes ++;\n      voters[msg.sender] = true;\n  }\n  \n  function countVotes () public {\n    //   require(block.timestamp - startTime >= allowedTime);\n      for (uint i = 0; i < partyCount; i++){\n          if (parties[i].votes > winnerVoteCount) {\n              winningParty = parties[i];\n              winnerVoteCount = parties[i].votes;\n          }\n      }\n  }\n}\n",
  "sourcePath": "/home/bart/ca400/2021-ca400-kiragab2-macgabr2/src/Ethocracy/contracts/Voting.sol",
  "compiler": {
    "name": "solc",
    "version": "0.5.16+commit.9c3226ce.Emscripten.clang"
  },
  "schemaVersion": "3.3.2",
  "updatedAt": "2021-02-09T18:42:52.687Z",
  "networkType": "ethereum",
  "devdoc": {
    "methods": {}
  },
  "userdoc": {
    "methods": {}
  }
}